{
  "_format": "hh-sol-artifact-1",
  "contractName": "TransferUSDC",
  "sourceName": "contracts/TransferUSDC.sol",
  "abi": [
    {
      "inputs": [
        {
          "internalType": "address",
          "name": "ccipRouter",
          "type": "address"
        },
        {
          "internalType": "address",
          "name": "linkToken",
          "type": "address"
        },
        {
          "internalType": "address",
          "name": "usdcToken",
          "type": "address"
        }
      ],
      "stateMutability": "nonpayable",
      "type": "constructor"
    },
    {
      "inputs": [
        {
          "internalType": "uint64",
          "name": "destinationChainSelector",
          "type": "uint64"
        }
      ],
      "name": "DestinationChainNotAllowlisted",
      "type": "error"
    },
    {
      "inputs": [
        {
          "internalType": "uint256",
          "name": "currentBalance",
          "type": "uint256"
        },
        {
          "internalType": "uint256",
          "name": "calculatedFees",
          "type": "uint256"
        }
      ],
      "name": "NotEnoughBalance",
      "type": "error"
    },
    {
      "inputs": [],
      "name": "NothingToWithdraw",
      "type": "error"
    },
    {
      "anonymous": false,
      "inputs": [
        {
          "indexed": true,
          "internalType": "address",
          "name": "from",
          "type": "address"
        },
        {
          "indexed": true,
          "internalType": "address",
          "name": "to",
          "type": "address"
        }
      ],
      "name": "OwnershipTransferRequested",
      "type": "event"
    },
    {
      "anonymous": false,
      "inputs": [
        {
          "indexed": true,
          "internalType": "address",
          "name": "from",
          "type": "address"
        },
        {
          "indexed": true,
          "internalType": "address",
          "name": "to",
          "type": "address"
        }
      ],
      "name": "OwnershipTransferred",
      "type": "event"
    },
    {
      "anonymous": false,
      "inputs": [
        {
          "indexed": false,
          "internalType": "bytes32",
          "name": "messageId",
          "type": "bytes32"
        },
        {
          "indexed": false,
          "internalType": "uint64",
          "name": "destinationChainSelector",
          "type": "uint64"
        },
        {
          "indexed": false,
          "internalType": "address",
          "name": "receiver",
          "type": "address"
        },
        {
          "indexed": false,
          "internalType": "uint256",
          "name": "amount",
          "type": "uint256"
        },
        {
          "indexed": false,
          "internalType": "uint256",
          "name": "ccipFee",
          "type": "uint256"
        }
      ],
      "name": "UsdcTransferred",
      "type": "event"
    },
    {
      "inputs": [],
      "name": "acceptOwnership",
      "outputs": [],
      "stateMutability": "nonpayable",
      "type": "function"
    },
    {
      "inputs": [
        {
          "internalType": "uint64",
          "name": "_destinationChainSelector",
          "type": "uint64"
        },
        {
          "internalType": "bool",
          "name": "_allowed",
          "type": "bool"
        }
      ],
      "name": "allowlistDestinationChain",
      "outputs": [],
      "stateMutability": "nonpayable",
      "type": "function"
    },
    {
      "inputs": [
        {
          "internalType": "uint64",
          "name": "",
          "type": "uint64"
        }
      ],
      "name": "allowlistedChains",
      "outputs": [
        {
          "internalType": "bool",
          "name": "",
          "type": "bool"
        }
      ],
      "stateMutability": "view",
      "type": "function"
    },
    {
      "inputs": [],
      "name": "owner",
      "outputs": [
        {
          "internalType": "address",
          "name": "",
          "type": "address"
        }
      ],
      "stateMutability": "view",
      "type": "function"
    },
    {
      "inputs": [
        {
          "internalType": "address",
          "name": "to",
          "type": "address"
        }
      ],
      "name": "transferOwnership",
      "outputs": [],
      "stateMutability": "nonpayable",
      "type": "function"
    },
    {
      "inputs": [
        {
          "internalType": "uint64",
          "name": "_destinationChainSelector",
          "type": "uint64"
        },
        {
          "internalType": "address",
          "name": "_receiver",
          "type": "address"
        },
        {
          "internalType": "uint256",
          "name": "_amount",
          "type": "uint256"
        },
        {
          "internalType": "uint64",
          "name": "_gasLimit",
          "type": "uint64"
        }
      ],
      "name": "transferUsdc",
      "outputs": [
        {
          "internalType": "bytes32",
          "name": "messageId",
          "type": "bytes32"
        }
      ],
      "stateMutability": "nonpayable",
      "type": "function"
    },
    {
      "inputs": [
        {
          "internalType": "address",
          "name": "_beneficiary",
          "type": "address"
        },
        {
          "internalType": "address",
          "name": "_token",
          "type": "address"
        }
      ],
      "name": "withdrawToken",
      "outputs": [],
      "stateMutability": "nonpayable",
      "type": "function"
    }
  ],
  "bytecode": "0x60e0604052346100465761001a6100146100f7565b91610140565b6040516113346103318239608051816109f0015260a05181610987015260c051816108b7015261133490f35b5f80fd5b634e487b7160e01b5f52604160045260245ffd5b90601f01601f191681019081106001600160401b0382111761007f57604052565b61004a565b9061009861009160405190565b928361005e565b565b6001600160a01b031690565b90565b6001600160a01b0381160361004657565b90505190610098826100a9565b9091606082840312610046576100a66100e084846100ba565b9360406100f082602087016100ba565b94016100ba565b6101156116658038038061010a81610084565b9283398101906100c7565b909192565b6100a69061009a906001600160a01b031682565b6100a69061011a565b6100a69061012e565b61016992916101596101619261015461016e565b610137565b608052610137565b60a052610137565b60c052565b6100983361018d565b61009a6100a66100a69290565b6100a690610177565b6100989061019a5f610184565b9061021c565b156101a757565b60405162461bcd60e51b815260206004820152601860248201527f43616e6e6f7420736574206f776e657220746f207a65726f00000000000000006044820152606490fd5b906101fc6100a661021892610137565b82546001600160a01b0319166001600160a01b03919091161790565b9055565b6102519061009a61022c5f610184565b9161024b6001600160a01b0384166001600160a01b03831614156101a0565b5f6101ec565b6001600160a01b038216036102635750565b610098906102cb565b1561027357565b60405162461bcd60e51b815260206004820152601760248201527f43616e6e6f74207472616e7366657220746f2073656c660000000000000000006044820152606490fd5b6100a69061009a565b6100a690546102b8565b6102e0336001600160a01b038316141561026c565b6102eb8160016101ec565b6103006102fa6101545f6102c1565b91610137565b907fed8889f560326eb138920d842192f0eb3dd22b4f139c87a2c57538e05bae127861032b60405190565b5f90a356fe60806040526004361015610011575f80fd5b5f3560e01c80630bb106eb146100805780633aeac4e11461007b5780636b83161a1461007657806379ba5097146100715780638da5cb5b1461006c57806396d3b83d146100675763f2fde38b03610098576102fe565b6102d1565b610264565b61024c565b610213565b6101a6565b61012a565b67ffffffffffffffff81165b0361009857565b5f80fd5b905035906100a982610085565b565b90602082820312610098576100bf9161009c565b90565b6100d96100bf6100bf9267ffffffffffffffff1690565b67ffffffffffffffff1690565b906100f0906100c2565b5f5260205260405f2090565b6100bf916008021c5b60ff1690565b906100bf91546100fc565b5f6101256100bf9260026100e6565b61010b565b34610098576101576101456101403660046100ab565b610116565b60405191829182901515815260200190565b0390f35b6001600160a01b031690565b6001600160a01b038116610091565b905035906100a982610167565b9190604083820312610098576100bf90602061019f8286610176565b9401610176565b34610098576101bf6101b9366004610183565b90610526565b604051005b80610091565b905035906100a9826101c4565b608081830312610098576101eb828261009c565b926100bf6101fc8460208501610176565b93606061020c82604087016101ca565b940161009c565b34610098576101576102326102293660046101d7565b92919091610ca6565b6040519182918290815260200190565b5f91031261009857565b346100985761025c366004610242565b6101bf610d55565b3461009857610274366004610242565b61015761027f610dce565b604051918291826001600160a01b03909116815260200190565b801515610091565b905035906100a982610299565b9190604083820312610098576100bf9060206102ca828661009c565b94016102a1565b34610098576101bf6102e43660046102ae565b90610e1d565b90602082820312610098576100bf91610176565b34610098576101bf6103113660046102ea565b610e3c565b906100a991610323610e8a565b610404565b6100bf9061015b906001600160a01b031682565b6100bf90610328565b6100bf9061033c565b634e487b7160e01b5f52604160045260245ffd5b90601f01601f1916810190811067ffffffffffffffff82111761038457604052565b61034e565b905051906100a9826101c4565b90602082820312610098576100bf91610389565b6040513d5f823e3d90fd5b6100bf6100bf6100bf9290565b905051906100a982610299565b90602082820312610098576100bf916103c2565b6001600160a01b0390911681526040810192916100a99160200152565b0152565b9061041161041691610345565b610345565b9061044e602061042530610345565b6040519283918291906370a0823160e01b5b83526001600160a01b031660048301526024820190565b0381865afa9081156104dd575f916104f7575b5061046b5f6103b5565b81146104e2576104a1926020925f61048260405190565b80968195829461049663a9059cbb60e01b90565b8452600484016103e3565b03925af180156104dd576104b25750565b6104d39060203d6020116104d6575b6104cb8183610362565b8101906103cf565b50565b503d6104c1565b6103aa565b630686827b60e51b5f908152600490fd5b035ffd5b610519915060203d60201161051f575b6105118183610362565b810190610396565b5f610461565b503d610507565b906100a991610316565b906100bf94939291610540610e8a565b610558565b6100bf90610105565b6100bf9054610545565b94939291909461057861057461056f8860026100e6565b61054e565b1590565b61058757946100bf949561089e565b630a503cdb60e01b5f90815267ffffffffffffffff8716600452602490fd5b906100a96105b360405190565b9283610362565b67ffffffffffffffff81116103845760208091020190565b906105e46105df836105ba565b6105a6565b918252565b6100bf60406105a6565b6105fb6105e9565b905f82525f6020830152565b6100bf6105f3565b5f5b82811061061d57505050565b602090610628610607565b8184015201610611565b906100a9610648610642846105d2565b936105ba565b601f19016020840161060f565b634e487b7160e01b5f52603260045260245ffd5b90610672825190565b811015610683576020809102010190565b610655565b6100bf60206105a6565b6100bf6100bf6100bf9267ffffffffffffffff1690565b6100bf60a06105a6565b67ffffffffffffffff811161038457602090601f01601f19160190565b0190565b906105e46105df836106b3565b6100bf5f6106d4565b6100bf6106e1565b5f5b8381106107035750505f910152565b81810151838201526020016106f4565b61073461073d6020936106d093610728815190565b80835293849260200190565b958691016106f2565b601f01601f191690565b90610767610760610756845190565b8084529260200190565b9260200190565b905f5b8181106107775750505090565b9091926107a96107a2600192865180516001600160a01b031682526020908101519082015260400190565b9460200190565b92910161076a565b6100bf9160806107f86107e66107d460a085015f8701518682035f880152610713565b60208601518582036020870152610713565b60408501518482036040860152610747565b6060808501516001600160a01b031690840152920151906080818403910152610713565b67ffffffffffffffff90911681526100bf91604082019160208184039101526107b1565b9081526040810192916100a99160200152565b909594926100a9946108976104009261088760809661087660a088019c5f890152565b67ffffffffffffffff166020870152565b6001600160a01b03166040850152565b6060830152565b50909392916108b56108b060016103b5565b610632565b7f00000000000000000000000000000000000000000000000000000000000000006108df81610345565b906108e86105e9565b6001600160a01b03831681526108ff856020830152565b61091161090b5f6103b5565b85610669565b5261092461091e5f6103b5565b84610669565b51506109eb61097f61093560405190565b9761096289602081016109568e826001600160a01b03909116815260200190565b9081038252038a610362565b61097a610976610970610688565b92610692565b8252565b610ee5565b6109d56109ab7f0000000000000000000000000000000000000000000000000000000000000000610345565b956109bc6109b76106a9565b9a8b52565b6109ce6109c76106ea565b60208c0152565b60408a0152565b6001600160a01b03851660608901526080880152565b610a147f0000000000000000000000000000000000000000000000000000000000000000610345565b90610a1e60405190565b936320487ded60e01b855260208580610a3b8b8b6004840161081c565b0381865afa9485156104dd575f95610c85575b506370a0823193610a5e30610345565b94610a6860405190565b610a728260e01b90565b81526001600160a01b0387166004820152602081602481875afa80156104dd57610aa0915f91610c6c575090565b8711610bff575063095ea7b3916020610ab860405190565b8092610ac48660e01b90565b8252815f81610ad78d8c600484016103e3565b03925af180156104dd57610b0796602095610afb938b93610be4575b503390610f5f565b60405194859260e01b90565b8252815f81610b1a8a88600484016103e3565b03925af19081156104dd575f96602093610b5393610bc9575b5060405197889384928391906396f4e9f960e01b83528a6004840161081c565b03925af19081156104dd577fb55a3d3f1ccd1c10f00aff03ad884028d98fa1d478fae03acecbf884ce8e8fbc945f92610ba6575b508192610ba19297610b9860405190565b95869586610853565b0390a1565b610ba19250610bc39060203d60201161051f576105118183610362565b91610b87565b610bdf90853d87116104d6576104cb8183610362565b610b33565b610bfa90883d8a116104d6576104cb8183610362565b610af3565b610c21602087856104378b95610c1460405190565b9586948593849360e01b90565b03915afa9182156104dd575f926104f3928491610c4d575b50634787a10360e11b845260048401610840565b610c66915060203d60201161051f576105118183610362565b84610c39565b6100bf915060203d60201161051f576105118183610362565b610c9f91955060203d60201161051f576105118183610362565b935f610a4e565b6100bf939291905f610530565b6100bf9061015b565b6100bf9054610cb3565b15610ccd57565b60405162461bcd60e51b815260206004820152601660248201527526bab9ba10313290383937b837b9b2b21037bbb732b960511b6044820152606490fd5b0390fd5b906001600160a01b03905b9181191691161790565b90610d346100bf610d3b92610345565b8254610d0f565b9055565b61015b6100bf6100bf9290565b6100bf90610d3f565b610d6c610d6561015b6001610cbc565b3314610cc6565b610d95610d785f610cbc565b610d82335f610d24565b610411610d8e5f610d4c565b6001610d24565b610d9e33610345565b907f8be0079c531659141344cd1fd0a4f28419497f9722a3daafe3b4186f6b6457e0610dc960405190565b5f90a3565b6100bf5f610cbc565b906100a991610de4610e8a565b610e09565b9060ff90610d1a565b90610e026100bf610d3b92151590565b8254610de9565b90610e186100a99260026100e6565b610df2565b906100a991610dd7565b6100a990610e33610e8a565b6100a990610ff5565b6100a990610e27565b15610e4c57565b60405162461bcd60e51b815260206004820152601660248201527527b7363c9031b0b63630b1363290313c9037bbb732b960511b6044820152606490fd5b6100a9610e9961015b5f610cbc565b3314610e45565b610eb3610ead6100bf9290565b60e01b90565b6001600160e01b03191690565b6100bf6397a657c9610ea0565b516100a99152565b6020810192916100a99190610ecd565b6100bf600491610ef3606090565b50610f19610eff610ec0565b91610f0960405190565b9485936020850190815201610ed5565b60208201810382520382610362565b610eb3610ead6100bf9263ffffffff1690565b6001600160a01b039182168152911660208201526060810192916100a99160400152565b90610fa490610f956100a995600495610f7b6323b872dd610f28565b93610f8560405190565b9788956020870190815201610f3b565b60208201810382520383610362565b6110ef565b15610fb057565b60405162461bcd60e51b815260206004820152601760248201527f43616e6e6f74207472616e7366657220746f2073656c660000000000000000006044820152606490fd5b61100a336001600160a01b0383161415610fa9565b611015816001610d24565b61102a6110246104115f610cbc565b91610345565b907fed8889f560326eb138920d842192f0eb3dd22b4f139c87a2c57538e05bae1278610dc960405190565b61105f60206106d4565b7f5361666545524332303a206c6f772d6c6576656c2063616c6c206661696c6564602082015290565b6100bf611055565b1561109757565b60405162461bcd60e51b815260206004820152602a60248201527f5361666545524332303a204552433230206f7065726174696f6e20646964206e6044820152691bdd081cdd58d8d9595960b21b6064820152608490fd5b906110fc61110b92610345565b90611105611088565b91611146565b805161111d6111195f6103b5565b9190565b116111255750565b6111418160206111366100a9945190565b8183010191016103cf565b611090565b6100bf92916111545f6103b5565b916111d3565b1561116157565b60405162461bcd60e51b815260206004820152602660248201527f416464726573733a20696e73756666696369656e742062616c616e636520666f6044820152651c8818d85b1b60d21b6064820152608490fd5b3d156111ce576111c43d6106d4565b903d5f602084013e565b606090565b905f80916100bf95946111e4606090565b506111fb6111f130610345565b829031101561115a565b60208251920190855af161120d6111b5565b9161125f565b1561121a57565b60405162461bcd60e51b815260206004820152601d60248201527f416464726573733a2063616c6c20746f206e6f6e2d636f6e74726163740000006044820152606490fd5b91929015611290575081516112766111195f6103b5565b1461127f575090565b61128b6100bf916112ed565b611213565b826112a7565b60208082526100bf92910190610713565b906112b0825190565b6112bc6111195f6103b5565b11156112cb5750805190602001fd5b610d0b906112d860405190565b62461bcd60e51b815291829160048301611296565b3b6112fa6111195f6103b5565b119056fea264697066735822122044d85b18354041440c91e4e839ba07844aa251d6193e47bb0943d89dc0a65eb264736f6c634300081a0033",
  "linkReferences": {},
  "deployedLinkReferences": {}
}