{
  "contracts/TransferUSDC.sol": {
    "TransferUSDC": {
      "abi": [
        {
          "inputs": [
            {
              "internalType": "address",
              "name": "ccipRouter",
              "type": "address"
            },
            {
              "internalType": "address",
              "name": "linkToken",
              "type": "address"
            },
            {
              "internalType": "address",
              "name": "usdcToken",
              "type": "address"
            }
          ],
          "stateMutability": "nonpayable",
          "type": "constructor"
        },
        {
          "inputs": [
            {
              "internalType": "uint64",
              "name": "destinationChainSelector",
              "type": "uint64"
            }
          ],
          "name": "DestinationChainNotAllowlisted",
          "type": "error"
        },
        {
          "inputs": [
            {
              "internalType": "uint256",
              "name": "currentBalance",
              "type": "uint256"
            },
            {
              "internalType": "uint256",
              "name": "calculatedFees",
              "type": "uint256"
            }
          ],
          "name": "NotEnoughBalance",
          "type": "error"
        },
        {
          "inputs": [],
          "name": "NothingToWithdraw",
          "type": "error"
        },
        {
          "anonymous": false,
          "inputs": [
            {
              "indexed": true,
              "internalType": "address",
              "name": "from",
              "type": "address"
            },
            {
              "indexed": true,
              "internalType": "address",
              "name": "to",
              "type": "address"
            }
          ],
          "name": "OwnershipTransferRequested",
          "type": "event"
        },
        {
          "anonymous": false,
          "inputs": [
            {
              "indexed": true,
              "internalType": "address",
              "name": "from",
              "type": "address"
            },
            {
              "indexed": true,
              "internalType": "address",
              "name": "to",
              "type": "address"
            }
          ],
          "name": "OwnershipTransferred",
          "type": "event"
        },
        {
          "anonymous": false,
          "inputs": [
            {
              "indexed": false,
              "internalType": "bytes32",
              "name": "messageId",
              "type": "bytes32"
            },
            {
              "indexed": false,
              "internalType": "uint64",
              "name": "destinationChainSelector",
              "type": "uint64"
            },
            {
              "indexed": false,
              "internalType": "address",
              "name": "receiver",
              "type": "address"
            },
            {
              "indexed": false,
              "internalType": "uint256",
              "name": "amount",
              "type": "uint256"
            },
            {
              "indexed": false,
              "internalType": "uint256",
              "name": "ccipFee",
              "type": "uint256"
            }
          ],
          "name": "UsdcTransferred",
          "type": "event"
        },
        {
          "inputs": [],
          "name": "acceptOwnership",
          "outputs": [],
          "stateMutability": "nonpayable",
          "type": "function"
        },
        {
          "inputs": [
            {
              "internalType": "uint64",
              "name": "_destinationChainSelector",
              "type": "uint64"
            },
            {
              "internalType": "bool",
              "name": "_allowed",
              "type": "bool"
            }
          ],
          "name": "allowlistDestinationChain",
          "outputs": [],
          "stateMutability": "nonpayable",
          "type": "function"
        },
        {
          "inputs": [
            {
              "internalType": "uint64",
              "name": "",
              "type": "uint64"
            }
          ],
          "name": "allowlistedChains",
          "outputs": [
            {
              "internalType": "bool",
              "name": "",
              "type": "bool"
            }
          ],
          "stateMutability": "view",
          "type": "function"
        },
        {
          "inputs": [],
          "name": "owner",
          "outputs": [
            {
              "internalType": "address",
              "name": "",
              "type": "address"
            }
          ],
          "stateMutability": "view",
          "type": "function"
        },
        {
          "inputs": [
            {
              "internalType": "address",
              "name": "to",
              "type": "address"
            }
          ],
          "name": "transferOwnership",
          "outputs": [],
          "stateMutability": "nonpayable",
          "type": "function"
        },
        {
          "inputs": [
            {
              "internalType": "uint64",
              "name": "_destinationChainSelector",
              "type": "uint64"
            },
            {
              "internalType": "address",
              "name": "_receiver",
              "type": "address"
            },
            {
              "internalType": "uint256",
              "name": "_amount",
              "type": "uint256"
            },
            {
              "internalType": "uint64",
              "name": "_gasLimit",
              "type": "uint64"
            }
          ],
          "name": "transferUsdc",
          "outputs": [
            {
              "internalType": "bytes32",
              "name": "messageId",
              "type": "bytes32"
            }
          ],
          "stateMutability": "nonpayable",
          "type": "function"
        },
        {
          "inputs": [
            {
              "internalType": "address",
              "name": "_beneficiary",
              "type": "address"
            },
            {
              "internalType": "address",
              "name": "_token",
              "type": "address"
            }
          ],
          "name": "withdrawToken",
          "outputs": [],
          "stateMutability": "nonpayable",
          "type": "function"
        }
      ],
      "evm": {
        "bytecode": {
          "linkReferences": {},
          "object": "60e0604052346100465761001a6100146100f7565b91610140565b6040516113346103318239608051816109f0015260a05181610987015260c051816108b7015261133490f35b5f80fd5b634e487b7160e01b5f52604160045260245ffd5b90601f01601f191681019081106001600160401b0382111761007f57604052565b61004a565b9061009861009160405190565b928361005e565b565b6001600160a01b031690565b90565b6001600160a01b0381160361004657565b90505190610098826100a9565b9091606082840312610046576100a66100e084846100ba565b9360406100f082602087016100ba565b94016100ba565b6101156116658038038061010a81610084565b9283398101906100c7565b909192565b6100a69061009a906001600160a01b031682565b6100a69061011a565b6100a69061012e565b61016992916101596101619261015461016e565b610137565b608052610137565b60a052610137565b60c052565b6100983361018d565b61009a6100a66100a69290565b6100a690610177565b6100989061019a5f610184565b9061021c565b156101a757565b60405162461bcd60e51b815260206004820152601860248201527f43616e6e6f7420736574206f776e657220746f207a65726f00000000000000006044820152606490fd5b906101fc6100a661021892610137565b82546001600160a01b0319166001600160a01b03919091161790565b9055565b6102519061009a61022c5f610184565b9161024b6001600160a01b0384166001600160a01b03831614156101a0565b5f6101ec565b6001600160a01b038216036102635750565b610098906102cb565b1561027357565b60405162461bcd60e51b815260206004820152601760248201527f43616e6e6f74207472616e7366657220746f2073656c660000000000000000006044820152606490fd5b6100a69061009a565b6100a690546102b8565b6102e0336001600160a01b038316141561026c565b6102eb8160016101ec565b6103006102fa6101545f6102c1565b91610137565b907fed8889f560326eb138920d842192f0eb3dd22b4f139c87a2c57538e05bae127861032b60405190565b5f90a356fe60806040526004361015610011575f80fd5b5f3560e01c80630bb106eb146100805780633aeac4e11461007b5780636b83161a1461007657806379ba5097146100715780638da5cb5b1461006c57806396d3b83d146100675763f2fde38b03610098576102fe565b6102d1565b610264565b61024c565b610213565b6101a6565b61012a565b67ffffffffffffffff81165b0361009857565b5f80fd5b905035906100a982610085565b565b90602082820312610098576100bf9161009c565b90565b6100d96100bf6100bf9267ffffffffffffffff1690565b67ffffffffffffffff1690565b906100f0906100c2565b5f5260205260405f2090565b6100bf916008021c5b60ff1690565b906100bf91546100fc565b5f6101256100bf9260026100e6565b61010b565b34610098576101576101456101403660046100ab565b610116565b60405191829182901515815260200190565b0390f35b6001600160a01b031690565b6001600160a01b038116610091565b905035906100a982610167565b9190604083820312610098576100bf90602061019f8286610176565b9401610176565b34610098576101bf6101b9366004610183565b90610526565b604051005b80610091565b905035906100a9826101c4565b608081830312610098576101eb828261009c565b926100bf6101fc8460208501610176565b93606061020c82604087016101ca565b940161009c565b34610098576101576102326102293660046101d7565b92919091610ca6565b6040519182918290815260200190565b5f91031261009857565b346100985761025c366004610242565b6101bf610d55565b3461009857610274366004610242565b61015761027f610dce565b604051918291826001600160a01b03909116815260200190565b801515610091565b905035906100a982610299565b9190604083820312610098576100bf9060206102ca828661009c565b94016102a1565b34610098576101bf6102e43660046102ae565b90610e1d565b90602082820312610098576100bf91610176565b34610098576101bf6103113660046102ea565b610e3c565b906100a991610323610e8a565b610404565b6100bf9061015b906001600160a01b031682565b6100bf90610328565b6100bf9061033c565b634e487b7160e01b5f52604160045260245ffd5b90601f01601f1916810190811067ffffffffffffffff82111761038457604052565b61034e565b905051906100a9826101c4565b90602082820312610098576100bf91610389565b6040513d5f823e3d90fd5b6100bf6100bf6100bf9290565b905051906100a982610299565b90602082820312610098576100bf916103c2565b6001600160a01b0390911681526040810192916100a99160200152565b0152565b9061041161041691610345565b610345565b9061044e602061042530610345565b6040519283918291906370a0823160e01b5b83526001600160a01b031660048301526024820190565b0381865afa9081156104dd575f916104f7575b5061046b5f6103b5565b81146104e2576104a1926020925f61048260405190565b80968195829461049663a9059cbb60e01b90565b8452600484016103e3565b03925af180156104dd576104b25750565b6104d39060203d6020116104d6575b6104cb8183610362565b8101906103cf565b50565b503d6104c1565b6103aa565b630686827b60e51b5f908152600490fd5b035ffd5b610519915060203d60201161051f575b6105118183610362565b810190610396565b5f610461565b503d610507565b906100a991610316565b906100bf94939291610540610e8a565b610558565b6100bf90610105565b6100bf9054610545565b94939291909461057861057461056f8860026100e6565b61054e565b1590565b61058757946100bf949561089e565b630a503cdb60e01b5f90815267ffffffffffffffff8716600452602490fd5b906100a96105b360405190565b9283610362565b67ffffffffffffffff81116103845760208091020190565b906105e46105df836105ba565b6105a6565b918252565b6100bf60406105a6565b6105fb6105e9565b905f82525f6020830152565b6100bf6105f3565b5f5b82811061061d57505050565b602090610628610607565b8184015201610611565b906100a9610648610642846105d2565b936105ba565b601f19016020840161060f565b634e487b7160e01b5f52603260045260245ffd5b90610672825190565b811015610683576020809102010190565b610655565b6100bf60206105a6565b6100bf6100bf6100bf9267ffffffffffffffff1690565b6100bf60a06105a6565b67ffffffffffffffff811161038457602090601f01601f19160190565b0190565b906105e46105df836106b3565b6100bf5f6106d4565b6100bf6106e1565b5f5b8381106107035750505f910152565b81810151838201526020016106f4565b61073461073d6020936106d093610728815190565b80835293849260200190565b958691016106f2565b601f01601f191690565b90610767610760610756845190565b8084529260200190565b9260200190565b905f5b8181106107775750505090565b9091926107a96107a2600192865180516001600160a01b031682526020908101519082015260400190565b9460200190565b92910161076a565b6100bf9160806107f86107e66107d460a085015f8701518682035f880152610713565b60208601518582036020870152610713565b60408501518482036040860152610747565b6060808501516001600160a01b031690840152920151906080818403910152610713565b67ffffffffffffffff90911681526100bf91604082019160208184039101526107b1565b9081526040810192916100a99160200152565b909594926100a9946108976104009261088760809661087660a088019c5f890152565b67ffffffffffffffff166020870152565b6001600160a01b03166040850152565b6060830152565b50909392916108b56108b060016103b5565b610632565b7f00000000000000000000000000000000000000000000000000000000000000006108df81610345565b906108e86105e9565b6001600160a01b03831681526108ff856020830152565b61091161090b5f6103b5565b85610669565b5261092461091e5f6103b5565b84610669565b51506109eb61097f61093560405190565b9761096289602081016109568e826001600160a01b03909116815260200190565b9081038252038a610362565b61097a610976610970610688565b92610692565b8252565b610ee5565b6109d56109ab7f0000000000000000000000000000000000000000000000000000000000000000610345565b956109bc6109b76106a9565b9a8b52565b6109ce6109c76106ea565b60208c0152565b60408a0152565b6001600160a01b03851660608901526080880152565b610a147f0000000000000000000000000000000000000000000000000000000000000000610345565b90610a1e60405190565b936320487ded60e01b855260208580610a3b8b8b6004840161081c565b0381865afa9485156104dd575f95610c85575b506370a0823193610a5e30610345565b94610a6860405190565b610a728260e01b90565b81526001600160a01b0387166004820152602081602481875afa80156104dd57610aa0915f91610c6c575090565b8711610bff575063095ea7b3916020610ab860405190565b8092610ac48660e01b90565b8252815f81610ad78d8c600484016103e3565b03925af180156104dd57610b0796602095610afb938b93610be4575b503390610f5f565b60405194859260e01b90565b8252815f81610b1a8a88600484016103e3565b03925af19081156104dd575f96602093610b5393610bc9575b5060405197889384928391906396f4e9f960e01b83528a6004840161081c565b03925af19081156104dd577fb55a3d3f1ccd1c10f00aff03ad884028d98fa1d478fae03acecbf884ce8e8fbc945f92610ba6575b508192610ba19297610b9860405190565b95869586610853565b0390a1565b610ba19250610bc39060203d60201161051f576105118183610362565b91610b87565b610bdf90853d87116104d6576104cb8183610362565b610b33565b610bfa90883d8a116104d6576104cb8183610362565b610af3565b610c21602087856104378b95610c1460405190565b9586948593849360e01b90565b03915afa9182156104dd575f926104f3928491610c4d575b50634787a10360e11b845260048401610840565b610c66915060203d60201161051f576105118183610362565b84610c39565b6100bf915060203d60201161051f576105118183610362565b610c9f91955060203d60201161051f576105118183610362565b935f610a4e565b6100bf939291905f610530565b6100bf9061015b565b6100bf9054610cb3565b15610ccd57565b60405162461bcd60e51b815260206004820152601660248201527526bab9ba10313290383937b837b9b2b21037bbb732b960511b6044820152606490fd5b0390fd5b906001600160a01b03905b9181191691161790565b90610d346100bf610d3b92610345565b8254610d0f565b9055565b61015b6100bf6100bf9290565b6100bf90610d3f565b610d6c610d6561015b6001610cbc565b3314610cc6565b610d95610d785f610cbc565b610d82335f610d24565b610411610d8e5f610d4c565b6001610d24565b610d9e33610345565b907f8be0079c531659141344cd1fd0a4f28419497f9722a3daafe3b4186f6b6457e0610dc960405190565b5f90a3565b6100bf5f610cbc565b906100a991610de4610e8a565b610e09565b9060ff90610d1a565b90610e026100bf610d3b92151590565b8254610de9565b90610e186100a99260026100e6565b610df2565b906100a991610dd7565b6100a990610e33610e8a565b6100a990610ff5565b6100a990610e27565b15610e4c57565b60405162461bcd60e51b815260206004820152601660248201527527b7363c9031b0b63630b1363290313c9037bbb732b960511b6044820152606490fd5b6100a9610e9961015b5f610cbc565b3314610e45565b610eb3610ead6100bf9290565b60e01b90565b6001600160e01b03191690565b6100bf6397a657c9610ea0565b516100a99152565b6020810192916100a99190610ecd565b6100bf600491610ef3606090565b50610f19610eff610ec0565b91610f0960405190565b9485936020850190815201610ed5565b60208201810382520382610362565b610eb3610ead6100bf9263ffffffff1690565b6001600160a01b039182168152911660208201526060810192916100a99160400152565b90610fa490610f956100a995600495610f7b6323b872dd610f28565b93610f8560405190565b9788956020870190815201610f3b565b60208201810382520383610362565b6110ef565b15610fb057565b60405162461bcd60e51b815260206004820152601760248201527f43616e6e6f74207472616e7366657220746f2073656c660000000000000000006044820152606490fd5b61100a336001600160a01b0383161415610fa9565b611015816001610d24565b61102a6110246104115f610cbc565b91610345565b907fed8889f560326eb138920d842192f0eb3dd22b4f139c87a2c57538e05bae1278610dc960405190565b61105f60206106d4565b7f5361666545524332303a206c6f772d6c6576656c2063616c6c206661696c6564602082015290565b6100bf611055565b1561109757565b60405162461bcd60e51b815260206004820152602a60248201527f5361666545524332303a204552433230206f7065726174696f6e20646964206e6044820152691bdd081cdd58d8d9595960b21b6064820152608490fd5b906110fc61110b92610345565b90611105611088565b91611146565b805161111d6111195f6103b5565b9190565b116111255750565b6111418160206111366100a9945190565b8183010191016103cf565b611090565b6100bf92916111545f6103b5565b916111d3565b1561116157565b60405162461bcd60e51b815260206004820152602660248201527f416464726573733a20696e73756666696369656e742062616c616e636520666f6044820152651c8818d85b1b60d21b6064820152608490fd5b3d156111ce576111c43d6106d4565b903d5f602084013e565b606090565b905f80916100bf95946111e4606090565b506111fb6111f130610345565b829031101561115a565b60208251920190855af161120d6111b5565b9161125f565b1561121a57565b60405162461bcd60e51b815260206004820152601d60248201527f416464726573733a2063616c6c20746f206e6f6e2d636f6e74726163740000006044820152606490fd5b91929015611290575081516112766111195f6103b5565b1461127f575090565b61128b6100bf916112ed565b611213565b826112a7565b60208082526100bf92910190610713565b906112b0825190565b6112bc6111195f6103b5565b11156112cb5750805190602001fd5b610d0b906112d860405190565b62461bcd60e51b815291829160048301611296565b3b6112fa6111195f6103b5565b119056fea264697066735822122044d85b18354041440c91e4e839ba07844aa251d6193e47bb0943d89dc0a65eb264736f6c634300081a0033",
          "opcodes": "PUSH1 0xE0 PUSH1 0x40 MSTORE CALLVALUE PUSH2 0x46 JUMPI PUSH2 0x1A PUSH2 0x14 PUSH2 0xF7 JUMP JUMPDEST SWAP2 PUSH2 0x140 JUMP JUMPDEST PUSH1 0x40 MLOAD PUSH2 0x1334 PUSH2 0x331 DUP3 CODECOPY PUSH1 0x80 MLOAD DUP2 PUSH2 0x9F0 ADD MSTORE PUSH1 0xA0 MLOAD DUP2 PUSH2 0x987 ADD MSTORE PUSH1 0xC0 MLOAD DUP2 PUSH2 0x8B7 ADD MSTORE PUSH2 0x1334 SWAP1 RETURN JUMPDEST PUSH0 DUP1 REVERT JUMPDEST PUSH4 0x4E487B71 PUSH1 0xE0 SHL PUSH0 MSTORE PUSH1 0x41 PUSH1 0x4 MSTORE PUSH1 0x24 PUSH0 REVERT JUMPDEST SWAP1 PUSH1 0x1F ADD PUSH1 0x1F NOT AND DUP2 ADD SWAP1 DUP2 LT PUSH1 0x1 PUSH1 0x1 PUSH1 0x40 SHL SUB DUP3 GT OR PUSH2 0x7F JUMPI PUSH1 0x40 MSTORE JUMP JUMPDEST PUSH2 0x4A JUMP JUMPDEST SWAP1 PUSH2 0x98 PUSH2 0x91 PUSH1 0x40 MLOAD SWAP1 JUMP JUMPDEST SWAP3 DUP4 PUSH2 0x5E JUMP JUMPDEST JUMP JUMPDEST PUSH1 0x1 PUSH1 0x1 PUSH1 0xA0 SHL SUB AND SWAP1 JUMP JUMPDEST SWAP1 JUMP JUMPDEST PUSH1 0x1 PUSH1 0x1 PUSH1 0xA0 SHL SUB DUP2 AND SUB PUSH2 0x46 JUMPI JUMP JUMPDEST SWAP1 POP MLOAD SWAP1 PUSH2 0x98 DUP3 PUSH2 0xA9 JUMP JUMPDEST SWAP1 SWAP2 PUSH1 0x60 DUP3 DUP5 SUB SLT PUSH2 0x46 JUMPI PUSH2 0xA6 PUSH2 0xE0 DUP5 DUP5 PUSH2 0xBA JUMP JUMPDEST SWAP4 PUSH1 0x40 PUSH2 0xF0 DUP3 PUSH1 0x20 DUP8 ADD PUSH2 0xBA JUMP JUMPDEST SWAP5 ADD PUSH2 0xBA JUMP JUMPDEST PUSH2 0x115 PUSH2 0x1665 DUP1 CODESIZE SUB DUP1 PUSH2 0x10A DUP2 PUSH2 0x84 JUMP JUMPDEST SWAP3 DUP4 CODECOPY DUP2 ADD SWAP1 PUSH2 0xC7 JUMP JUMPDEST SWAP1 SWAP2 SWAP3 JUMP JUMPDEST PUSH2 0xA6 SWAP1 PUSH2 0x9A SWAP1 PUSH1 0x1 PUSH1 0x1 PUSH1 0xA0 SHL SUB AND DUP3 JUMP JUMPDEST PUSH2 0xA6 SWAP1 PUSH2 0x11A JUMP JUMPDEST PUSH2 0xA6 SWAP1 PUSH2 0x12E JUMP JUMPDEST PUSH2 0x169 SWAP3 SWAP2 PUSH2 0x159 PUSH2 0x161 SWAP3 PUSH2 0x154 PUSH2 0x16E JUMP JUMPDEST PUSH2 0x137 JUMP JUMPDEST PUSH1 0x80 MSTORE PUSH2 0x137 JUMP JUMPDEST PUSH1 0xA0 MSTORE PUSH2 0x137 JUMP JUMPDEST PUSH1 0xC0 MSTORE JUMP JUMPDEST PUSH2 0x98 CALLER PUSH2 0x18D JUMP JUMPDEST PUSH2 0x9A PUSH2 0xA6 PUSH2 0xA6 SWAP3 SWAP1 JUMP JUMPDEST PUSH2 0xA6 SWAP1 PUSH2 0x177 JUMP JUMPDEST PUSH2 0x98 SWAP1 PUSH2 0x19A PUSH0 PUSH2 0x184 JUMP JUMPDEST SWAP1 PUSH2 0x21C JUMP JUMPDEST ISZERO PUSH2 0x1A7 JUMPI JUMP JUMPDEST PUSH1 0x40 MLOAD PUSH3 0x461BCD PUSH1 0xE5 SHL DUP2 MSTORE PUSH1 0x20 PUSH1 0x4 DUP3 ADD MSTORE PUSH1 0x18 PUSH1 0x24 DUP3 ADD MSTORE PUSH32 0x43616E6E6F7420736574206F776E657220746F207A65726F0000000000000000 PUSH1 0x44 DUP3 ADD MSTORE PUSH1 0x64 SWAP1 REVERT JUMPDEST SWAP1 PUSH2 0x1FC PUSH2 0xA6 PUSH2 0x218 SWAP3 PUSH2 0x137 JUMP JUMPDEST DUP3 SLOAD PUSH1 0x1 PUSH1 0x1 PUSH1 0xA0 SHL SUB NOT AND PUSH1 0x1 PUSH1 0x1 PUSH1 0xA0 SHL SUB SWAP2 SWAP1 SWAP2 AND OR SWAP1 JUMP JUMPDEST SWAP1 SSTORE JUMP JUMPDEST PUSH2 0x251 SWAP1 PUSH2 0x9A PUSH2 0x22C PUSH0 PUSH2 0x184 JUMP JUMPDEST SWAP2 PUSH2 0x24B PUSH1 0x1 PUSH1 0x1 PUSH1 0xA0 SHL SUB DUP5 AND PUSH1 0x1 PUSH1 0x1 PUSH1 0xA0 SHL SUB DUP4 AND EQ ISZERO PUSH2 0x1A0 JUMP JUMPDEST PUSH0 PUSH2 0x1EC JUMP JUMPDEST PUSH1 0x1 PUSH1 0x1 PUSH1 0xA0 SHL SUB DUP3 AND SUB PUSH2 0x263 JUMPI POP JUMP JUMPDEST PUSH2 0x98 SWAP1 PUSH2 0x2CB JUMP JUMPDEST ISZERO PUSH2 0x273 JUMPI JUMP JUMPDEST PUSH1 0x40 MLOAD PUSH3 0x461BCD PUSH1 0xE5 SHL DUP2 MSTORE PUSH1 0x20 PUSH1 0x4 DUP3 ADD MSTORE PUSH1 0x17 PUSH1 0x24 DUP3 ADD MSTORE PUSH32 0x43616E6E6F74207472616E7366657220746F2073656C66000000000000000000 PUSH1 0x44 DUP3 ADD MSTORE PUSH1 0x64 SWAP1 REVERT JUMPDEST PUSH2 0xA6 SWAP1 PUSH2 0x9A JUMP JUMPDEST PUSH2 0xA6 SWAP1 SLOAD PUSH2 0x2B8 JUMP JUMPDEST PUSH2 0x2E0 CALLER PUSH1 0x1 PUSH1 0x1 PUSH1 0xA0 SHL SUB DUP4 AND EQ ISZERO PUSH2 0x26C JUMP JUMPDEST PUSH2 0x2EB DUP2 PUSH1 0x1 PUSH2 0x1EC JUMP JUMPDEST PUSH2 0x300 PUSH2 0x2FA PUSH2 0x154 PUSH0 PUSH2 0x2C1 JUMP JUMPDEST SWAP2 PUSH2 0x137 JUMP JUMPDEST SWAP1 PUSH32 0xED8889F560326EB138920D842192F0EB3DD22B4F139C87A2C57538E05BAE1278 PUSH2 0x32B PUSH1 0x40 MLOAD SWAP1 JUMP JUMPDEST PUSH0 SWAP1 LOG3 JUMP INVALID PUSH1 0x80 PUSH1 0x40 MSTORE PUSH1 0x4 CALLDATASIZE LT ISZERO PUSH2 0x11 JUMPI PUSH0 DUP1 REVERT JUMPDEST PUSH0 CALLDATALOAD PUSH1 0xE0 SHR DUP1 PUSH4 0xBB106EB EQ PUSH2 0x80 JUMPI DUP1 PUSH4 0x3AEAC4E1 EQ PUSH2 0x7B JUMPI DUP1 PUSH4 0x6B83161A EQ PUSH2 0x76 JUMPI DUP1 PUSH4 0x79BA5097 EQ PUSH2 0x71 JUMPI DUP1 PUSH4 0x8DA5CB5B EQ PUSH2 0x6C JUMPI DUP1 PUSH4 0x96D3B83D EQ PUSH2 0x67 JUMPI PUSH4 0xF2FDE38B SUB PUSH2 0x98 JUMPI PUSH2 0x2FE JUMP JUMPDEST PUSH2 0x2D1 JUMP JUMPDEST PUSH2 0x264 JUMP JUMPDEST PUSH2 0x24C JUMP JUMPDEST PUSH2 0x213 JUMP JUMPDEST PUSH2 0x1A6 JUMP JUMPDEST PUSH2 0x12A JUMP JUMPDEST PUSH8 0xFFFFFFFFFFFFFFFF DUP2 AND JUMPDEST SUB PUSH2 0x98 JUMPI JUMP JUMPDEST PUSH0 DUP1 REVERT JUMPDEST SWAP1 POP CALLDATALOAD SWAP1 PUSH2 0xA9 DUP3 PUSH2 0x85 JUMP JUMPDEST JUMP JUMPDEST SWAP1 PUSH1 0x20 DUP3 DUP3 SUB SLT PUSH2 0x98 JUMPI PUSH2 0xBF SWAP2 PUSH2 0x9C JUMP JUMPDEST SWAP1 JUMP JUMPDEST PUSH2 0xD9 PUSH2 0xBF PUSH2 0xBF SWAP3 PUSH8 0xFFFFFFFFFFFFFFFF AND SWAP1 JUMP JUMPDEST PUSH8 0xFFFFFFFFFFFFFFFF AND SWAP1 JUMP JUMPDEST SWAP1 PUSH2 0xF0 SWAP1 PUSH2 0xC2 JUMP JUMPDEST PUSH0 MSTORE PUSH1 0x20 MSTORE PUSH1 0x40 PUSH0 KECCAK256 SWAP1 JUMP JUMPDEST PUSH2 0xBF SWAP2 PUSH1 0x8 MUL SHR JUMPDEST PUSH1 0xFF AND SWAP1 JUMP JUMPDEST SWAP1 PUSH2 0xBF SWAP2 SLOAD PUSH2 0xFC JUMP JUMPDEST PUSH0 PUSH2 0x125 PUSH2 0xBF SWAP3 PUSH1 0x2 PUSH2 0xE6 JUMP JUMPDEST PUSH2 0x10B JUMP JUMPDEST CALLVALUE PUSH2 0x98 JUMPI PUSH2 0x157 PUSH2 0x145 PUSH2 0x140 CALLDATASIZE PUSH1 0x4 PUSH2 0xAB JUMP JUMPDEST PUSH2 0x116 JUMP JUMPDEST PUSH1 0x40 MLOAD SWAP2 DUP3 SWAP2 DUP3 SWAP1 ISZERO ISZERO DUP2 MSTORE PUSH1 0x20 ADD SWAP1 JUMP JUMPDEST SUB SWAP1 RETURN JUMPDEST PUSH1 0x1 PUSH1 0x1 PUSH1 0xA0 SHL SUB AND SWAP1 JUMP JUMPDEST PUSH1 0x1 PUSH1 0x1 PUSH1 0xA0 SHL SUB DUP2 AND PUSH2 0x91 JUMP JUMPDEST SWAP1 POP CALLDATALOAD SWAP1 PUSH2 0xA9 DUP3 PUSH2 0x167 JUMP JUMPDEST SWAP2 SWAP1 PUSH1 0x40 DUP4 DUP3 SUB SLT PUSH2 0x98 JUMPI PUSH2 0xBF SWAP1 PUSH1 0x20 PUSH2 0x19F DUP3 DUP7 PUSH2 0x176 JUMP JUMPDEST SWAP5 ADD PUSH2 0x176 JUMP JUMPDEST CALLVALUE PUSH2 0x98 JUMPI PUSH2 0x1BF PUSH2 0x1B9 CALLDATASIZE PUSH1 0x4 PUSH2 0x183 JUMP JUMPDEST SWAP1 PUSH2 0x526 JUMP JUMPDEST PUSH1 0x40 MLOAD STOP JUMPDEST DUP1 PUSH2 0x91 JUMP JUMPDEST SWAP1 POP CALLDATALOAD SWAP1 PUSH2 0xA9 DUP3 PUSH2 0x1C4 JUMP JUMPDEST PUSH1 0x80 DUP2 DUP4 SUB SLT PUSH2 0x98 JUMPI PUSH2 0x1EB DUP3 DUP3 PUSH2 0x9C JUMP JUMPDEST SWAP3 PUSH2 0xBF PUSH2 0x1FC DUP5 PUSH1 0x20 DUP6 ADD PUSH2 0x176 JUMP JUMPDEST SWAP4 PUSH1 0x60 PUSH2 0x20C DUP3 PUSH1 0x40 DUP8 ADD PUSH2 0x1CA JUMP JUMPDEST SWAP5 ADD PUSH2 0x9C JUMP JUMPDEST CALLVALUE PUSH2 0x98 JUMPI PUSH2 0x157 PUSH2 0x232 PUSH2 0x229 CALLDATASIZE PUSH1 0x4 PUSH2 0x1D7 JUMP JUMPDEST SWAP3 SWAP2 SWAP1 SWAP2 PUSH2 0xCA6 JUMP JUMPDEST PUSH1 0x40 MLOAD SWAP2 DUP3 SWAP2 DUP3 SWAP1 DUP2 MSTORE PUSH1 0x20 ADD SWAP1 JUMP JUMPDEST PUSH0 SWAP2 SUB SLT PUSH2 0x98 JUMPI JUMP JUMPDEST CALLVALUE PUSH2 0x98 JUMPI PUSH2 0x25C CALLDATASIZE PUSH1 0x4 PUSH2 0x242 JUMP JUMPDEST PUSH2 0x1BF PUSH2 0xD55 JUMP JUMPDEST CALLVALUE PUSH2 0x98 JUMPI PUSH2 0x274 CALLDATASIZE PUSH1 0x4 PUSH2 0x242 JUMP JUMPDEST PUSH2 0x157 PUSH2 0x27F PUSH2 0xDCE JUMP JUMPDEST PUSH1 0x40 MLOAD SWAP2 DUP3 SWAP2 DUP3 PUSH1 0x1 PUSH1 0x1 PUSH1 0xA0 SHL SUB SWAP1 SWAP2 AND DUP2 MSTORE PUSH1 0x20 ADD SWAP1 JUMP JUMPDEST DUP1 ISZERO ISZERO PUSH2 0x91 JUMP JUMPDEST SWAP1 POP CALLDATALOAD SWAP1 PUSH2 0xA9 DUP3 PUSH2 0x299 JUMP JUMPDEST SWAP2 SWAP1 PUSH1 0x40 DUP4 DUP3 SUB SLT PUSH2 0x98 JUMPI PUSH2 0xBF SWAP1 PUSH1 0x20 PUSH2 0x2CA DUP3 DUP7 PUSH2 0x9C JUMP JUMPDEST SWAP5 ADD PUSH2 0x2A1 JUMP JUMPDEST CALLVALUE PUSH2 0x98 JUMPI PUSH2 0x1BF PUSH2 0x2E4 CALLDATASIZE PUSH1 0x4 PUSH2 0x2AE JUMP JUMPDEST SWAP1 PUSH2 0xE1D JUMP JUMPDEST SWAP1 PUSH1 0x20 DUP3 DUP3 SUB SLT PUSH2 0x98 JUMPI PUSH2 0xBF SWAP2 PUSH2 0x176 JUMP JUMPDEST CALLVALUE PUSH2 0x98 JUMPI PUSH2 0x1BF PUSH2 0x311 CALLDATASIZE PUSH1 0x4 PUSH2 0x2EA JUMP JUMPDEST PUSH2 0xE3C JUMP JUMPDEST SWAP1 PUSH2 0xA9 SWAP2 PUSH2 0x323 PUSH2 0xE8A JUMP JUMPDEST PUSH2 0x404 JUMP JUMPDEST PUSH2 0xBF SWAP1 PUSH2 0x15B SWAP1 PUSH1 0x1 PUSH1 0x1 PUSH1 0xA0 SHL SUB AND DUP3 JUMP JUMPDEST PUSH2 0xBF SWAP1 PUSH2 0x328 JUMP JUMPDEST PUSH2 0xBF SWAP1 PUSH2 0x33C JUMP JUMPDEST PUSH4 0x4E487B71 PUSH1 0xE0 SHL PUSH0 MSTORE PUSH1 0x41 PUSH1 0x4 MSTORE PUSH1 0x24 PUSH0 REVERT JUMPDEST SWAP1 PUSH1 0x1F ADD PUSH1 0x1F NOT AND DUP2 ADD SWAP1 DUP2 LT PUSH8 0xFFFFFFFFFFFFFFFF DUP3 GT OR PUSH2 0x384 JUMPI PUSH1 0x40 MSTORE JUMP JUMPDEST PUSH2 0x34E JUMP JUMPDEST SWAP1 POP MLOAD SWAP1 PUSH2 0xA9 DUP3 PUSH2 0x1C4 JUMP JUMPDEST SWAP1 PUSH1 0x20 DUP3 DUP3 SUB SLT PUSH2 0x98 JUMPI PUSH2 0xBF SWAP2 PUSH2 0x389 JUMP JUMPDEST PUSH1 0x40 MLOAD RETURNDATASIZE PUSH0 DUP3 RETURNDATACOPY RETURNDATASIZE SWAP1 REVERT JUMPDEST PUSH2 0xBF PUSH2 0xBF PUSH2 0xBF SWAP3 SWAP1 JUMP JUMPDEST SWAP1 POP MLOAD SWAP1 PUSH2 0xA9 DUP3 PUSH2 0x299 JUMP JUMPDEST SWAP1 PUSH1 0x20 DUP3 DUP3 SUB SLT PUSH2 0x98 JUMPI PUSH2 0xBF SWAP2 PUSH2 0x3C2 JUMP JUMPDEST PUSH1 0x1 PUSH1 0x1 PUSH1 0xA0 SHL SUB SWAP1 SWAP2 AND DUP2 MSTORE PUSH1 0x40 DUP2 ADD SWAP3 SWAP2 PUSH2 0xA9 SWAP2 PUSH1 0x20 ADD MSTORE JUMP JUMPDEST ADD MSTORE JUMP JUMPDEST SWAP1 PUSH2 0x411 PUSH2 0x416 SWAP2 PUSH2 0x345 JUMP JUMPDEST PUSH2 0x345 JUMP JUMPDEST SWAP1 PUSH2 0x44E PUSH1 0x20 PUSH2 0x425 ADDRESS PUSH2 0x345 JUMP JUMPDEST PUSH1 0x40 MLOAD SWAP3 DUP4 SWAP2 DUP3 SWAP2 SWAP1 PUSH4 0x70A08231 PUSH1 0xE0 SHL JUMPDEST DUP4 MSTORE PUSH1 0x1 PUSH1 0x1 PUSH1 0xA0 SHL SUB AND PUSH1 0x4 DUP4 ADD MSTORE PUSH1 0x24 DUP3 ADD SWAP1 JUMP JUMPDEST SUB DUP2 DUP7 GAS STATICCALL SWAP1 DUP2 ISZERO PUSH2 0x4DD JUMPI PUSH0 SWAP2 PUSH2 0x4F7 JUMPI JUMPDEST POP PUSH2 0x46B PUSH0 PUSH2 0x3B5 JUMP JUMPDEST DUP2 EQ PUSH2 0x4E2 JUMPI PUSH2 0x4A1 SWAP3 PUSH1 0x20 SWAP3 PUSH0 PUSH2 0x482 PUSH1 0x40 MLOAD SWAP1 JUMP JUMPDEST DUP1 SWAP7 DUP2 SWAP6 DUP3 SWAP5 PUSH2 0x496 PUSH4 0xA9059CBB PUSH1 0xE0 SHL SWAP1 JUMP JUMPDEST DUP5 MSTORE PUSH1 0x4 DUP5 ADD PUSH2 0x3E3 JUMP JUMPDEST SUB SWAP3 GAS CALL DUP1 ISZERO PUSH2 0x4DD JUMPI PUSH2 0x4B2 JUMPI POP JUMP JUMPDEST PUSH2 0x4D3 SWAP1 PUSH1 0x20 RETURNDATASIZE PUSH1 0x20 GT PUSH2 0x4D6 JUMPI JUMPDEST PUSH2 0x4CB DUP2 DUP4 PUSH2 0x362 JUMP JUMPDEST DUP2 ADD SWAP1 PUSH2 0x3CF JUMP JUMPDEST POP JUMP JUMPDEST POP RETURNDATASIZE PUSH2 0x4C1 JUMP JUMPDEST PUSH2 0x3AA JUMP JUMPDEST PUSH4 0x686827B PUSH1 0xE5 SHL PUSH0 SWAP1 DUP2 MSTORE PUSH1 0x4 SWAP1 REVERT JUMPDEST SUB PUSH0 REVERT JUMPDEST PUSH2 0x519 SWAP2 POP PUSH1 0x20 RETURNDATASIZE PUSH1 0x20 GT PUSH2 0x51F JUMPI JUMPDEST PUSH2 0x511 DUP2 DUP4 PUSH2 0x362 JUMP JUMPDEST DUP2 ADD SWAP1 PUSH2 0x396 JUMP JUMPDEST PUSH0 PUSH2 0x461 JUMP JUMPDEST POP RETURNDATASIZE PUSH2 0x507 JUMP JUMPDEST SWAP1 PUSH2 0xA9 SWAP2 PUSH2 0x316 JUMP JUMPDEST SWAP1 PUSH2 0xBF SWAP5 SWAP4 SWAP3 SWAP2 PUSH2 0x540 PUSH2 0xE8A JUMP JUMPDEST PUSH2 0x558 JUMP JUMPDEST PUSH2 0xBF SWAP1 PUSH2 0x105 JUMP JUMPDEST PUSH2 0xBF SWAP1 SLOAD PUSH2 0x545 JUMP JUMPDEST SWAP5 SWAP4 SWAP3 SWAP2 SWAP1 SWAP5 PUSH2 0x578 PUSH2 0x574 PUSH2 0x56F DUP9 PUSH1 0x2 PUSH2 0xE6 JUMP JUMPDEST PUSH2 0x54E JUMP JUMPDEST ISZERO SWAP1 JUMP JUMPDEST PUSH2 0x587 JUMPI SWAP5 PUSH2 0xBF SWAP5 SWAP6 PUSH2 0x89E JUMP JUMPDEST PUSH4 0xA503CDB PUSH1 0xE0 SHL PUSH0 SWAP1 DUP2 MSTORE PUSH8 0xFFFFFFFFFFFFFFFF DUP8 AND PUSH1 0x4 MSTORE PUSH1 0x24 SWAP1 REVERT JUMPDEST SWAP1 PUSH2 0xA9 PUSH2 0x5B3 PUSH1 0x40 MLOAD SWAP1 JUMP JUMPDEST SWAP3 DUP4 PUSH2 0x362 JUMP JUMPDEST PUSH8 0xFFFFFFFFFFFFFFFF DUP2 GT PUSH2 0x384 JUMPI PUSH1 0x20 DUP1 SWAP2 MUL ADD SWAP1 JUMP JUMPDEST SWAP1 PUSH2 0x5E4 PUSH2 0x5DF DUP4 PUSH2 0x5BA JUMP JUMPDEST PUSH2 0x5A6 JUMP JUMPDEST SWAP2 DUP3 MSTORE JUMP JUMPDEST PUSH2 0xBF PUSH1 0x40 PUSH2 0x5A6 JUMP JUMPDEST PUSH2 0x5FB PUSH2 0x5E9 JUMP JUMPDEST SWAP1 PUSH0 DUP3 MSTORE PUSH0 PUSH1 0x20 DUP4 ADD MSTORE JUMP JUMPDEST PUSH2 0xBF PUSH2 0x5F3 JUMP JUMPDEST PUSH0 JUMPDEST DUP3 DUP2 LT PUSH2 0x61D JUMPI POP POP POP JUMP JUMPDEST PUSH1 0x20 SWAP1 PUSH2 0x628 PUSH2 0x607 JUMP JUMPDEST DUP2 DUP5 ADD MSTORE ADD PUSH2 0x611 JUMP JUMPDEST SWAP1 PUSH2 0xA9 PUSH2 0x648 PUSH2 0x642 DUP5 PUSH2 0x5D2 JUMP JUMPDEST SWAP4 PUSH2 0x5BA JUMP JUMPDEST PUSH1 0x1F NOT ADD PUSH1 0x20 DUP5 ADD PUSH2 0x60F JUMP JUMPDEST PUSH4 0x4E487B71 PUSH1 0xE0 SHL PUSH0 MSTORE PUSH1 0x32 PUSH1 0x4 MSTORE PUSH1 0x24 PUSH0 REVERT JUMPDEST SWAP1 PUSH2 0x672 DUP3 MLOAD SWAP1 JUMP JUMPDEST DUP2 LT ISZERO PUSH2 0x683 JUMPI PUSH1 0x20 DUP1 SWAP2 MUL ADD ADD SWAP1 JUMP JUMPDEST PUSH2 0x655 JUMP JUMPDEST PUSH2 0xBF PUSH1 0x20 PUSH2 0x5A6 JUMP JUMPDEST PUSH2 0xBF PUSH2 0xBF PUSH2 0xBF SWAP3 PUSH8 0xFFFFFFFFFFFFFFFF AND SWAP1 JUMP JUMPDEST PUSH2 0xBF PUSH1 0xA0 PUSH2 0x5A6 JUMP JUMPDEST PUSH8 0xFFFFFFFFFFFFFFFF DUP2 GT PUSH2 0x384 JUMPI PUSH1 0x20 SWAP1 PUSH1 0x1F ADD PUSH1 0x1F NOT AND ADD SWAP1 JUMP JUMPDEST ADD SWAP1 JUMP JUMPDEST SWAP1 PUSH2 0x5E4 PUSH2 0x5DF DUP4 PUSH2 0x6B3 JUMP JUMPDEST PUSH2 0xBF PUSH0 PUSH2 0x6D4 JUMP JUMPDEST PUSH2 0xBF PUSH2 0x6E1 JUMP JUMPDEST PUSH0 JUMPDEST DUP4 DUP2 LT PUSH2 0x703 JUMPI POP POP PUSH0 SWAP2 ADD MSTORE JUMP JUMPDEST DUP2 DUP2 ADD MLOAD DUP4 DUP3 ADD MSTORE PUSH1 0x20 ADD PUSH2 0x6F4 JUMP JUMPDEST PUSH2 0x734 PUSH2 0x73D PUSH1 0x20 SWAP4 PUSH2 0x6D0 SWAP4 PUSH2 0x728 DUP2 MLOAD SWAP1 JUMP JUMPDEST DUP1 DUP4 MSTORE SWAP4 DUP5 SWAP3 PUSH1 0x20 ADD SWAP1 JUMP JUMPDEST SWAP6 DUP7 SWAP2 ADD PUSH2 0x6F2 JUMP JUMPDEST PUSH1 0x1F ADD PUSH1 0x1F NOT AND SWAP1 JUMP JUMPDEST SWAP1 PUSH2 0x767 PUSH2 0x760 PUSH2 0x756 DUP5 MLOAD SWAP1 JUMP JUMPDEST DUP1 DUP5 MSTORE SWAP3 PUSH1 0x20 ADD SWAP1 JUMP JUMPDEST SWAP3 PUSH1 0x20 ADD SWAP1 JUMP JUMPDEST SWAP1 PUSH0 JUMPDEST DUP2 DUP2 LT PUSH2 0x777 JUMPI POP POP POP SWAP1 JUMP JUMPDEST SWAP1 SWAP2 SWAP3 PUSH2 0x7A9 PUSH2 0x7A2 PUSH1 0x1 SWAP3 DUP7 MLOAD DUP1 MLOAD PUSH1 0x1 PUSH1 0x1 PUSH1 0xA0 SHL SUB AND DUP3 MSTORE PUSH1 0x20 SWAP1 DUP2 ADD MLOAD SWAP1 DUP3 ADD MSTORE PUSH1 0x40 ADD SWAP1 JUMP JUMPDEST SWAP5 PUSH1 0x20 ADD SWAP1 JUMP JUMPDEST SWAP3 SWAP2 ADD PUSH2 0x76A JUMP JUMPDEST PUSH2 0xBF SWAP2 PUSH1 0x80 PUSH2 0x7F8 PUSH2 0x7E6 PUSH2 0x7D4 PUSH1 0xA0 DUP6 ADD PUSH0 DUP8 ADD MLOAD DUP7 DUP3 SUB PUSH0 DUP9 ADD MSTORE PUSH2 0x713 JUMP JUMPDEST PUSH1 0x20 DUP7 ADD MLOAD DUP6 DUP3 SUB PUSH1 0x20 DUP8 ADD MSTORE PUSH2 0x713 JUMP JUMPDEST PUSH1 0x40 DUP6 ADD MLOAD DUP5 DUP3 SUB PUSH1 0x40 DUP7 ADD MSTORE PUSH2 0x747 JUMP JUMPDEST PUSH1 0x60 DUP1 DUP6 ADD MLOAD PUSH1 0x1 PUSH1 0x1 PUSH1 0xA0 SHL SUB AND SWAP1 DUP5 ADD MSTORE SWAP3 ADD MLOAD SWAP1 PUSH1 0x80 DUP2 DUP5 SUB SWAP2 ADD MSTORE PUSH2 0x713 JUMP JUMPDEST PUSH8 0xFFFFFFFFFFFFFFFF SWAP1 SWAP2 AND DUP2 MSTORE PUSH2 0xBF SWAP2 PUSH1 0x40 DUP3 ADD SWAP2 PUSH1 0x20 DUP2 DUP5 SUB SWAP2 ADD MSTORE PUSH2 0x7B1 JUMP JUMPDEST SWAP1 DUP2 MSTORE PUSH1 0x40 DUP2 ADD SWAP3 SWAP2 PUSH2 0xA9 SWAP2 PUSH1 0x20 ADD MSTORE JUMP JUMPDEST SWAP1 SWAP6 SWAP5 SWAP3 PUSH2 0xA9 SWAP5 PUSH2 0x897 PUSH2 0x400 SWAP3 PUSH2 0x887 PUSH1 0x80 SWAP7 PUSH2 0x876 PUSH1 0xA0 DUP9 ADD SWAP13 PUSH0 DUP10 ADD MSTORE JUMP JUMPDEST PUSH8 0xFFFFFFFFFFFFFFFF AND PUSH1 0x20 DUP8 ADD MSTORE JUMP JUMPDEST PUSH1 0x1 PUSH1 0x1 PUSH1 0xA0 SHL SUB AND PUSH1 0x40 DUP6 ADD MSTORE JUMP JUMPDEST PUSH1 0x60 DUP4 ADD MSTORE JUMP JUMPDEST POP SWAP1 SWAP4 SWAP3 SWAP2 PUSH2 0x8B5 PUSH2 0x8B0 PUSH1 0x1 PUSH2 0x3B5 JUMP JUMPDEST PUSH2 0x632 JUMP JUMPDEST PUSH32 0x0 PUSH2 0x8DF DUP2 PUSH2 0x345 JUMP JUMPDEST SWAP1 PUSH2 0x8E8 PUSH2 0x5E9 JUMP JUMPDEST PUSH1 0x1 PUSH1 0x1 PUSH1 0xA0 SHL SUB DUP4 AND DUP2 MSTORE PUSH2 0x8FF DUP6 PUSH1 0x20 DUP4 ADD MSTORE JUMP JUMPDEST PUSH2 0x911 PUSH2 0x90B PUSH0 PUSH2 0x3B5 JUMP JUMPDEST DUP6 PUSH2 0x669 JUMP JUMPDEST MSTORE PUSH2 0x924 PUSH2 0x91E PUSH0 PUSH2 0x3B5 JUMP JUMPDEST DUP5 PUSH2 0x669 JUMP JUMPDEST MLOAD POP PUSH2 0x9EB PUSH2 0x97F PUSH2 0x935 PUSH1 0x40 MLOAD SWAP1 JUMP JUMPDEST SWAP8 PUSH2 0x962 DUP10 PUSH1 0x20 DUP2 ADD PUSH2 0x956 DUP15 DUP3 PUSH1 0x1 PUSH1 0x1 PUSH1 0xA0 SHL SUB SWAP1 SWAP2 AND DUP2 MSTORE PUSH1 0x20 ADD SWAP1 JUMP JUMPDEST SWAP1 DUP2 SUB DUP3 MSTORE SUB DUP11 PUSH2 0x362 JUMP JUMPDEST PUSH2 0x97A PUSH2 0x976 PUSH2 0x970 PUSH2 0x688 JUMP JUMPDEST SWAP3 PUSH2 0x692 JUMP JUMPDEST DUP3 MSTORE JUMP JUMPDEST PUSH2 0xEE5 JUMP JUMPDEST PUSH2 0x9D5 PUSH2 0x9AB PUSH32 0x0 PUSH2 0x345 JUMP JUMPDEST SWAP6 PUSH2 0x9BC PUSH2 0x9B7 PUSH2 0x6A9 JUMP JUMPDEST SWAP11 DUP12 MSTORE JUMP JUMPDEST PUSH2 0x9CE PUSH2 0x9C7 PUSH2 0x6EA JUMP JUMPDEST PUSH1 0x20 DUP13 ADD MSTORE JUMP JUMPDEST PUSH1 0x40 DUP11 ADD MSTORE JUMP JUMPDEST PUSH1 0x1 PUSH1 0x1 PUSH1 0xA0 SHL SUB DUP6 AND PUSH1 0x60 DUP10 ADD MSTORE PUSH1 0x80 DUP9 ADD MSTORE JUMP JUMPDEST PUSH2 0xA14 PUSH32 0x0 PUSH2 0x345 JUMP JUMPDEST SWAP1 PUSH2 0xA1E PUSH1 0x40 MLOAD SWAP1 JUMP JUMPDEST SWAP4 PUSH4 0x20487DED PUSH1 0xE0 SHL DUP6 MSTORE PUSH1 0x20 DUP6 DUP1 PUSH2 0xA3B DUP12 DUP12 PUSH1 0x4 DUP5 ADD PUSH2 0x81C JUMP JUMPDEST SUB DUP2 DUP7 GAS STATICCALL SWAP5 DUP6 ISZERO PUSH2 0x4DD JUMPI PUSH0 SWAP6 PUSH2 0xC85 JUMPI JUMPDEST POP PUSH4 0x70A08231 SWAP4 PUSH2 0xA5E ADDRESS PUSH2 0x345 JUMP JUMPDEST SWAP5 PUSH2 0xA68 PUSH1 0x40 MLOAD SWAP1 JUMP JUMPDEST PUSH2 0xA72 DUP3 PUSH1 0xE0 SHL SWAP1 JUMP JUMPDEST DUP2 MSTORE PUSH1 0x1 PUSH1 0x1 PUSH1 0xA0 SHL SUB DUP8 AND PUSH1 0x4 DUP3 ADD MSTORE PUSH1 0x20 DUP2 PUSH1 0x24 DUP2 DUP8 GAS STATICCALL DUP1 ISZERO PUSH2 0x4DD JUMPI PUSH2 0xAA0 SWAP2 PUSH0 SWAP2 PUSH2 0xC6C JUMPI POP SWAP1 JUMP JUMPDEST DUP8 GT PUSH2 0xBFF JUMPI POP PUSH4 0x95EA7B3 SWAP2 PUSH1 0x20 PUSH2 0xAB8 PUSH1 0x40 MLOAD SWAP1 JUMP JUMPDEST DUP1 SWAP3 PUSH2 0xAC4 DUP7 PUSH1 0xE0 SHL SWAP1 JUMP JUMPDEST DUP3 MSTORE DUP2 PUSH0 DUP2 PUSH2 0xAD7 DUP14 DUP13 PUSH1 0x4 DUP5 ADD PUSH2 0x3E3 JUMP JUMPDEST SUB SWAP3 GAS CALL DUP1 ISZERO PUSH2 0x4DD JUMPI PUSH2 0xB07 SWAP7 PUSH1 0x20 SWAP6 PUSH2 0xAFB SWAP4 DUP12 SWAP4 PUSH2 0xBE4 JUMPI JUMPDEST POP CALLER SWAP1 PUSH2 0xF5F JUMP JUMPDEST PUSH1 0x40 MLOAD SWAP5 DUP6 SWAP3 PUSH1 0xE0 SHL SWAP1 JUMP JUMPDEST DUP3 MSTORE DUP2 PUSH0 DUP2 PUSH2 0xB1A DUP11 DUP9 PUSH1 0x4 DUP5 ADD PUSH2 0x3E3 JUMP JUMPDEST SUB SWAP3 GAS CALL SWAP1 DUP2 ISZERO PUSH2 0x4DD JUMPI PUSH0 SWAP7 PUSH1 0x20 SWAP4 PUSH2 0xB53 SWAP4 PUSH2 0xBC9 JUMPI JUMPDEST POP PUSH1 0x40 MLOAD SWAP8 DUP9 SWAP4 DUP5 SWAP3 DUP4 SWAP2 SWAP1 PUSH4 0x96F4E9F9 PUSH1 0xE0 SHL DUP4 MSTORE DUP11 PUSH1 0x4 DUP5 ADD PUSH2 0x81C JUMP JUMPDEST SUB SWAP3 GAS CALL SWAP1 DUP2 ISZERO PUSH2 0x4DD JUMPI PUSH32 0xB55A3D3F1CCD1C10F00AFF03AD884028D98FA1D478FAE03ACECBF884CE8E8FBC SWAP5 PUSH0 SWAP3 PUSH2 0xBA6 JUMPI JUMPDEST POP DUP2 SWAP3 PUSH2 0xBA1 SWAP3 SWAP8 PUSH2 0xB98 PUSH1 0x40 MLOAD SWAP1 JUMP JUMPDEST SWAP6 DUP7 SWAP6 DUP7 PUSH2 0x853 JUMP JUMPDEST SUB SWAP1 LOG1 JUMP JUMPDEST PUSH2 0xBA1 SWAP3 POP PUSH2 0xBC3 SWAP1 PUSH1 0x20 RETURNDATASIZE PUSH1 0x20 GT PUSH2 0x51F JUMPI PUSH2 0x511 DUP2 DUP4 PUSH2 0x362 JUMP JUMPDEST SWAP2 PUSH2 0xB87 JUMP JUMPDEST PUSH2 0xBDF SWAP1 DUP6 RETURNDATASIZE DUP8 GT PUSH2 0x4D6 JUMPI PUSH2 0x4CB DUP2 DUP4 PUSH2 0x362 JUMP JUMPDEST PUSH2 0xB33 JUMP JUMPDEST PUSH2 0xBFA SWAP1 DUP9 RETURNDATASIZE DUP11 GT PUSH2 0x4D6 JUMPI PUSH2 0x4CB DUP2 DUP4 PUSH2 0x362 JUMP JUMPDEST PUSH2 0xAF3 JUMP JUMPDEST PUSH2 0xC21 PUSH1 0x20 DUP8 DUP6 PUSH2 0x437 DUP12 SWAP6 PUSH2 0xC14 PUSH1 0x40 MLOAD SWAP1 JUMP JUMPDEST SWAP6 DUP7 SWAP5 DUP6 SWAP4 DUP5 SWAP4 PUSH1 0xE0 SHL SWAP1 JUMP JUMPDEST SUB SWAP2 GAS STATICCALL SWAP2 DUP3 ISZERO PUSH2 0x4DD JUMPI PUSH0 SWAP3 PUSH2 0x4F3 SWAP3 DUP5 SWAP2 PUSH2 0xC4D JUMPI JUMPDEST POP PUSH4 0x4787A103 PUSH1 0xE1 SHL DUP5 MSTORE PUSH1 0x4 DUP5 ADD PUSH2 0x840 JUMP JUMPDEST PUSH2 0xC66 SWAP2 POP PUSH1 0x20 RETURNDATASIZE PUSH1 0x20 GT PUSH2 0x51F JUMPI PUSH2 0x511 DUP2 DUP4 PUSH2 0x362 JUMP JUMPDEST DUP5 PUSH2 0xC39 JUMP JUMPDEST PUSH2 0xBF SWAP2 POP PUSH1 0x20 RETURNDATASIZE PUSH1 0x20 GT PUSH2 0x51F JUMPI PUSH2 0x511 DUP2 DUP4 PUSH2 0x362 JUMP JUMPDEST PUSH2 0xC9F SWAP2 SWAP6 POP PUSH1 0x20 RETURNDATASIZE PUSH1 0x20 GT PUSH2 0x51F JUMPI PUSH2 0x511 DUP2 DUP4 PUSH2 0x362 JUMP JUMPDEST SWAP4 PUSH0 PUSH2 0xA4E JUMP JUMPDEST PUSH2 0xBF SWAP4 SWAP3 SWAP2 SWAP1 PUSH0 PUSH2 0x530 JUMP JUMPDEST PUSH2 0xBF SWAP1 PUSH2 0x15B JUMP JUMPDEST PUSH2 0xBF SWAP1 SLOAD PUSH2 0xCB3 JUMP JUMPDEST ISZERO PUSH2 0xCCD JUMPI JUMP JUMPDEST PUSH1 0x40 MLOAD PUSH3 0x461BCD PUSH1 0xE5 SHL DUP2 MSTORE PUSH1 0x20 PUSH1 0x4 DUP3 ADD MSTORE PUSH1 0x16 PUSH1 0x24 DUP3 ADD MSTORE PUSH22 0x26BAB9BA10313290383937B837B9B2B21037BBB732B9 PUSH1 0x51 SHL PUSH1 0x44 DUP3 ADD MSTORE PUSH1 0x64 SWAP1 REVERT JUMPDEST SUB SWAP1 REVERT JUMPDEST SWAP1 PUSH1 0x1 PUSH1 0x1 PUSH1 0xA0 SHL SUB SWAP1 JUMPDEST SWAP2 DUP2 NOT AND SWAP2 AND OR SWAP1 JUMP JUMPDEST SWAP1 PUSH2 0xD34 PUSH2 0xBF PUSH2 0xD3B SWAP3 PUSH2 0x345 JUMP JUMPDEST DUP3 SLOAD PUSH2 0xD0F JUMP JUMPDEST SWAP1 SSTORE JUMP JUMPDEST PUSH2 0x15B PUSH2 0xBF PUSH2 0xBF SWAP3 SWAP1 JUMP JUMPDEST PUSH2 0xBF SWAP1 PUSH2 0xD3F JUMP JUMPDEST PUSH2 0xD6C PUSH2 0xD65 PUSH2 0x15B PUSH1 0x1 PUSH2 0xCBC JUMP JUMPDEST CALLER EQ PUSH2 0xCC6 JUMP JUMPDEST PUSH2 0xD95 PUSH2 0xD78 PUSH0 PUSH2 0xCBC JUMP JUMPDEST PUSH2 0xD82 CALLER PUSH0 PUSH2 0xD24 JUMP JUMPDEST PUSH2 0x411 PUSH2 0xD8E PUSH0 PUSH2 0xD4C JUMP JUMPDEST PUSH1 0x1 PUSH2 0xD24 JUMP JUMPDEST PUSH2 0xD9E CALLER PUSH2 0x345 JUMP JUMPDEST SWAP1 PUSH32 0x8BE0079C531659141344CD1FD0A4F28419497F9722A3DAAFE3B4186F6B6457E0 PUSH2 0xDC9 PUSH1 0x40 MLOAD SWAP1 JUMP JUMPDEST PUSH0 SWAP1 LOG3 JUMP JUMPDEST PUSH2 0xBF PUSH0 PUSH2 0xCBC JUMP JUMPDEST SWAP1 PUSH2 0xA9 SWAP2 PUSH2 0xDE4 PUSH2 0xE8A JUMP JUMPDEST PUSH2 0xE09 JUMP JUMPDEST SWAP1 PUSH1 0xFF SWAP1 PUSH2 0xD1A JUMP JUMPDEST SWAP1 PUSH2 0xE02 PUSH2 0xBF PUSH2 0xD3B SWAP3 ISZERO ISZERO SWAP1 JUMP JUMPDEST DUP3 SLOAD PUSH2 0xDE9 JUMP JUMPDEST SWAP1 PUSH2 0xE18 PUSH2 0xA9 SWAP3 PUSH1 0x2 PUSH2 0xE6 JUMP JUMPDEST PUSH2 0xDF2 JUMP JUMPDEST SWAP1 PUSH2 0xA9 SWAP2 PUSH2 0xDD7 JUMP JUMPDEST PUSH2 0xA9 SWAP1 PUSH2 0xE33 PUSH2 0xE8A JUMP JUMPDEST PUSH2 0xA9 SWAP1 PUSH2 0xFF5 JUMP JUMPDEST PUSH2 0xA9 SWAP1 PUSH2 0xE27 JUMP JUMPDEST ISZERO PUSH2 0xE4C JUMPI JUMP JUMPDEST PUSH1 0x40 MLOAD PUSH3 0x461BCD PUSH1 0xE5 SHL DUP2 MSTORE PUSH1 0x20 PUSH1 0x4 DUP3 ADD MSTORE PUSH1 0x16 PUSH1 0x24 DUP3 ADD MSTORE PUSH22 0x27B7363C9031B0B63630B1363290313C9037BBB732B9 PUSH1 0x51 SHL PUSH1 0x44 DUP3 ADD MSTORE PUSH1 0x64 SWAP1 REVERT JUMPDEST PUSH2 0xA9 PUSH2 0xE99 PUSH2 0x15B PUSH0 PUSH2 0xCBC JUMP JUMPDEST CALLER EQ PUSH2 0xE45 JUMP JUMPDEST PUSH2 0xEB3 PUSH2 0xEAD PUSH2 0xBF SWAP3 SWAP1 JUMP JUMPDEST PUSH1 0xE0 SHL SWAP1 JUMP JUMPDEST PUSH1 0x1 PUSH1 0x1 PUSH1 0xE0 SHL SUB NOT AND SWAP1 JUMP JUMPDEST PUSH2 0xBF PUSH4 0x97A657C9 PUSH2 0xEA0 JUMP JUMPDEST MLOAD PUSH2 0xA9 SWAP2 MSTORE JUMP JUMPDEST PUSH1 0x20 DUP2 ADD SWAP3 SWAP2 PUSH2 0xA9 SWAP2 SWAP1 PUSH2 0xECD JUMP JUMPDEST PUSH2 0xBF PUSH1 0x4 SWAP2 PUSH2 0xEF3 PUSH1 0x60 SWAP1 JUMP JUMPDEST POP PUSH2 0xF19 PUSH2 0xEFF PUSH2 0xEC0 JUMP JUMPDEST SWAP2 PUSH2 0xF09 PUSH1 0x40 MLOAD SWAP1 JUMP JUMPDEST SWAP5 DUP6 SWAP4 PUSH1 0x20 DUP6 ADD SWAP1 DUP2 MSTORE ADD PUSH2 0xED5 JUMP JUMPDEST PUSH1 0x20 DUP3 ADD DUP2 SUB DUP3 MSTORE SUB DUP3 PUSH2 0x362 JUMP JUMPDEST PUSH2 0xEB3 PUSH2 0xEAD PUSH2 0xBF SWAP3 PUSH4 0xFFFFFFFF AND SWAP1 JUMP JUMPDEST PUSH1 0x1 PUSH1 0x1 PUSH1 0xA0 SHL SUB SWAP2 DUP3 AND DUP2 MSTORE SWAP2 AND PUSH1 0x20 DUP3 ADD MSTORE PUSH1 0x60 DUP2 ADD SWAP3 SWAP2 PUSH2 0xA9 SWAP2 PUSH1 0x40 ADD MSTORE JUMP JUMPDEST SWAP1 PUSH2 0xFA4 SWAP1 PUSH2 0xF95 PUSH2 0xA9 SWAP6 PUSH1 0x4 SWAP6 PUSH2 0xF7B PUSH4 0x23B872DD PUSH2 0xF28 JUMP JUMPDEST SWAP4 PUSH2 0xF85 PUSH1 0x40 MLOAD SWAP1 JUMP JUMPDEST SWAP8 DUP9 SWAP6 PUSH1 0x20 DUP8 ADD SWAP1 DUP2 MSTORE ADD PUSH2 0xF3B JUMP JUMPDEST PUSH1 0x20 DUP3 ADD DUP2 SUB DUP3 MSTORE SUB DUP4 PUSH2 0x362 JUMP JUMPDEST PUSH2 0x10EF JUMP JUMPDEST ISZERO PUSH2 0xFB0 JUMPI JUMP JUMPDEST PUSH1 0x40 MLOAD PUSH3 0x461BCD PUSH1 0xE5 SHL DUP2 MSTORE PUSH1 0x20 PUSH1 0x4 DUP3 ADD MSTORE PUSH1 0x17 PUSH1 0x24 DUP3 ADD MSTORE PUSH32 0x43616E6E6F74207472616E7366657220746F2073656C66000000000000000000 PUSH1 0x44 DUP3 ADD MSTORE PUSH1 0x64 SWAP1 REVERT JUMPDEST PUSH2 0x100A CALLER PUSH1 0x1 PUSH1 0x1 PUSH1 0xA0 SHL SUB DUP4 AND EQ ISZERO PUSH2 0xFA9 JUMP JUMPDEST PUSH2 0x1015 DUP2 PUSH1 0x1 PUSH2 0xD24 JUMP JUMPDEST PUSH2 0x102A PUSH2 0x1024 PUSH2 0x411 PUSH0 PUSH2 0xCBC JUMP JUMPDEST SWAP2 PUSH2 0x345 JUMP JUMPDEST SWAP1 PUSH32 0xED8889F560326EB138920D842192F0EB3DD22B4F139C87A2C57538E05BAE1278 PUSH2 0xDC9 PUSH1 0x40 MLOAD SWAP1 JUMP JUMPDEST PUSH2 0x105F PUSH1 0x20 PUSH2 0x6D4 JUMP JUMPDEST PUSH32 0x5361666545524332303A206C6F772D6C6576656C2063616C6C206661696C6564 PUSH1 0x20 DUP3 ADD MSTORE SWAP1 JUMP JUMPDEST PUSH2 0xBF PUSH2 0x1055 JUMP JUMPDEST ISZERO PUSH2 0x1097 JUMPI JUMP JUMPDEST PUSH1 0x40 MLOAD PUSH3 0x461BCD PUSH1 0xE5 SHL DUP2 MSTORE PUSH1 0x20 PUSH1 0x4 DUP3 ADD MSTORE PUSH1 0x2A PUSH1 0x24 DUP3 ADD MSTORE PUSH32 0x5361666545524332303A204552433230206F7065726174696F6E20646964206E PUSH1 0x44 DUP3 ADD MSTORE PUSH10 0x1BDD081CDD58D8D95959 PUSH1 0xB2 SHL PUSH1 0x64 DUP3 ADD MSTORE PUSH1 0x84 SWAP1 REVERT JUMPDEST SWAP1 PUSH2 0x10FC PUSH2 0x110B SWAP3 PUSH2 0x345 JUMP JUMPDEST SWAP1 PUSH2 0x1105 PUSH2 0x1088 JUMP JUMPDEST SWAP2 PUSH2 0x1146 JUMP JUMPDEST DUP1 MLOAD PUSH2 0x111D PUSH2 0x1119 PUSH0 PUSH2 0x3B5 JUMP JUMPDEST SWAP2 SWAP1 JUMP JUMPDEST GT PUSH2 0x1125 JUMPI POP JUMP JUMPDEST PUSH2 0x1141 DUP2 PUSH1 0x20 PUSH2 0x1136 PUSH2 0xA9 SWAP5 MLOAD SWAP1 JUMP JUMPDEST DUP2 DUP4 ADD ADD SWAP2 ADD PUSH2 0x3CF JUMP JUMPDEST PUSH2 0x1090 JUMP JUMPDEST PUSH2 0xBF SWAP3 SWAP2 PUSH2 0x1154 PUSH0 PUSH2 0x3B5 JUMP JUMPDEST SWAP2 PUSH2 0x11D3 JUMP JUMPDEST ISZERO PUSH2 0x1161 JUMPI JUMP JUMPDEST PUSH1 0x40 MLOAD PUSH3 0x461BCD PUSH1 0xE5 SHL DUP2 MSTORE PUSH1 0x20 PUSH1 0x4 DUP3 ADD MSTORE PUSH1 0x26 PUSH1 0x24 DUP3 ADD MSTORE PUSH32 0x416464726573733A20696E73756666696369656E742062616C616E636520666F PUSH1 0x44 DUP3 ADD MSTORE PUSH6 0x1C8818D85B1B PUSH1 0xD2 SHL PUSH1 0x64 DUP3 ADD MSTORE PUSH1 0x84 SWAP1 REVERT JUMPDEST RETURNDATASIZE ISZERO PUSH2 0x11CE JUMPI PUSH2 0x11C4 RETURNDATASIZE PUSH2 0x6D4 JUMP JUMPDEST SWAP1 RETURNDATASIZE PUSH0 PUSH1 0x20 DUP5 ADD RETURNDATACOPY JUMP JUMPDEST PUSH1 0x60 SWAP1 JUMP JUMPDEST SWAP1 PUSH0 DUP1 SWAP2 PUSH2 0xBF SWAP6 SWAP5 PUSH2 0x11E4 PUSH1 0x60 SWAP1 JUMP JUMPDEST POP PUSH2 0x11FB PUSH2 0x11F1 ADDRESS PUSH2 0x345 JUMP JUMPDEST DUP3 SWAP1 BALANCE LT ISZERO PUSH2 0x115A JUMP JUMPDEST PUSH1 0x20 DUP3 MLOAD SWAP3 ADD SWAP1 DUP6 GAS CALL PUSH2 0x120D PUSH2 0x11B5 JUMP JUMPDEST SWAP2 PUSH2 0x125F JUMP JUMPDEST ISZERO PUSH2 0x121A JUMPI JUMP JUMPDEST PUSH1 0x40 MLOAD PUSH3 0x461BCD PUSH1 0xE5 SHL DUP2 MSTORE PUSH1 0x20 PUSH1 0x4 DUP3 ADD MSTORE PUSH1 0x1D PUSH1 0x24 DUP3 ADD MSTORE PUSH32 0x416464726573733A2063616C6C20746F206E6F6E2D636F6E7472616374000000 PUSH1 0x44 DUP3 ADD MSTORE PUSH1 0x64 SWAP1 REVERT JUMPDEST SWAP2 SWAP3 SWAP1 ISZERO PUSH2 0x1290 JUMPI POP DUP2 MLOAD PUSH2 0x1276 PUSH2 0x1119 PUSH0 PUSH2 0x3B5 JUMP JUMPDEST EQ PUSH2 0x127F JUMPI POP SWAP1 JUMP JUMPDEST PUSH2 0x128B PUSH2 0xBF SWAP2 PUSH2 0x12ED JUMP JUMPDEST PUSH2 0x1213 JUMP JUMPDEST DUP3 PUSH2 0x12A7 JUMP JUMPDEST PUSH1 0x20 DUP1 DUP3 MSTORE PUSH2 0xBF SWAP3 SWAP2 ADD SWAP1 PUSH2 0x713 JUMP JUMPDEST SWAP1 PUSH2 0x12B0 DUP3 MLOAD SWAP1 JUMP JUMPDEST PUSH2 0x12BC PUSH2 0x1119 PUSH0 PUSH2 0x3B5 JUMP JUMPDEST GT ISZERO PUSH2 0x12CB JUMPI POP DUP1 MLOAD SWAP1 PUSH1 0x20 ADD REVERT JUMPDEST PUSH2 0xD0B SWAP1 PUSH2 0x12D8 PUSH1 0x40 MLOAD SWAP1 JUMP JUMPDEST PUSH3 0x461BCD PUSH1 0xE5 SHL DUP2 MSTORE SWAP2 DUP3 SWAP2 PUSH1 0x4 DUP4 ADD PUSH2 0x1296 JUMP JUMPDEST EXTCODESIZE PUSH2 0x12FA PUSH2 0x1119 PUSH0 PUSH2 0x3B5 JUMP JUMPDEST GT SWAP1 JUMP INVALID LOG2 PUSH5 0x6970667358 0x22 SLT KECCAK256 PREVRANDAO 0xD8 JUMPDEST XOR CALLDATALOAD BLOCKHASH COINBASE PREVRANDAO 0xC SWAP2 0xE4 0xE8 CODECOPY 0xBA SMOD DUP5 BLOBBASEFEE LOG2 MLOAD 0xD6 NOT RETURNDATACOPY SELFBALANCE 0xBB MULMOD NUMBER 0xD8 SWAP14 0xC0 0xA6 MCOPY 0xB2 PUSH5 0x736F6C6343 STOP ADDMOD BYTE STOP CALLER "
        },
        "methodIdentifiers": {
          "acceptOwnership()": "79ba5097",
          "allowlistDestinationChain(uint64,bool)": "96d3b83d",
          "allowlistedChains(uint64)": "0bb106eb",
          "owner()": "8da5cb5b",
          "transferOwnership(address)": "f2fde38b",
          "transferUsdc(uint64,address,uint256,uint64)": "6b83161a",
          "withdrawToken(address,address)": "3aeac4e1"
        }
      }
    }
  }
}