{
  "@chainlink/contracts-ccip/src/v0.8/ccip/libraries/Client.sol": {
    "Client": {
      "abi": [
        {
          "inputs": [],
          "name": "EVM_EXTRA_ARGS_V1_TAG",
          "outputs": [
            {
              "internalType": "bytes4",
              "name": "",
              "type": "bytes4"
            }
          ],
          "stateMutability": "view",
          "type": "function"
        }
      ],
      "evm": {
        "bytecode": {
          "linkReferences": {},
          "object": "608060405234601b5760405160c661002082393081505060c690f35b5f80fdfe608060405260043610156010575f80fd5b5f3560e01c633ab8c0d003602b576060565b5f910312602b57565b5f80fd5b603f6039604c9290565b60e01b90565b6001600160e01b03191690565b90565b604c6397a657c9602f565b604c604f565b60693660046022565b608c6071605a565b604051918291826001600160e01b0319909116815260200190565b0390f3fea26469706673582212200a59fae6c9d13e59f52f420075bcb2566f4d2e649421499da8a920332a4b4b1564736f6c634300081a0033",
          "opcodes": "PUSH1 0x80 PUSH1 0x40 MSTORE CALLVALUE PUSH1 0x1B JUMPI PUSH1 0x40 MLOAD PUSH1 0xC6 PUSH2 0x20 DUP3 CODECOPY ADDRESS DUP2 POP POP PUSH1 0xC6 SWAP1 RETURN JUMPDEST PUSH0 DUP1 REVERT INVALID PUSH1 0x80 PUSH1 0x40 MSTORE PUSH1 0x4 CALLDATASIZE LT ISZERO PUSH1 0x10 JUMPI PUSH0 DUP1 REVERT JUMPDEST PUSH0 CALLDATALOAD PUSH1 0xE0 SHR PUSH4 0x3AB8C0D0 SUB PUSH1 0x2B JUMPI PUSH1 0x60 JUMP JUMPDEST PUSH0 SWAP2 SUB SLT PUSH1 0x2B JUMPI JUMP JUMPDEST PUSH0 DUP1 REVERT JUMPDEST PUSH1 0x3F PUSH1 0x39 PUSH1 0x4C SWAP3 SWAP1 JUMP JUMPDEST PUSH1 0xE0 SHL SWAP1 JUMP JUMPDEST PUSH1 0x1 PUSH1 0x1 PUSH1 0xE0 SHL SUB NOT AND SWAP1 JUMP JUMPDEST SWAP1 JUMP JUMPDEST PUSH1 0x4C PUSH4 0x97A657C9 PUSH1 0x2F JUMP JUMPDEST PUSH1 0x4C PUSH1 0x4F JUMP JUMPDEST PUSH1 0x69 CALLDATASIZE PUSH1 0x4 PUSH1 0x22 JUMP JUMPDEST PUSH1 0x8C PUSH1 0x71 PUSH1 0x5A JUMP JUMPDEST PUSH1 0x40 MLOAD SWAP2 DUP3 SWAP2 DUP3 PUSH1 0x1 PUSH1 0x1 PUSH1 0xE0 SHL SUB NOT SWAP1 SWAP2 AND DUP2 MSTORE PUSH1 0x20 ADD SWAP1 JUMP JUMPDEST SUB SWAP1 RETURN INVALID LOG2 PUSH5 0x6970667358 0x22 SLT KECCAK256 EXP MSIZE STATICCALL 0xE6 0xC9 0xD1 RETURNDATACOPY MSIZE CREATE2 0x2F TIMESTAMP STOP PUSH22 0xBCB2566F4D2E649421499DA8A920332A4B4B1564736F PUSH13 0x634300081A0033000000000000 "
        },
        "methodIdentifiers": {
          "EVM_EXTRA_ARGS_V1_TAG()": "3ab8c0d0"
        }
      }
    }
  }
}