{
  "_format": "hh-sol-artifact-1",
  "contractName": "CrossChainReceiver",
  "sourceName": "contracts/CrossChainReceiver.sol",
  "abi": [
    {
      "inputs": [
        {
          "internalType": "address",
          "name": "ccipRouterAddress",
          "type": "address"
        },
        {
          "internalType": "address",
          "name": "cometAddress",
          "type": "address"
        },
        {
          "internalType": "address",
          "name": "swapTestnetUsdcAddress",
          "type": "address"
        }
      ],
      "stateMutability": "nonpayable",
      "type": "constructor"
    },
    {
      "inputs": [],
      "name": "ErrorCase",
      "type": "error"
    },
    {
      "inputs": [
        {
          "internalType": "address",
          "name": "router",
          "type": "address"
        }
      ],
      "name": "InvalidRouter",
      "type": "error"
    },
    {
      "inputs": [
        {
          "internalType": "bytes32",
          "name": "messageId",
          "type": "bytes32"
        }
      ],
      "name": "MessageNotFailed",
      "type": "error"
    },
    {
      "inputs": [],
      "name": "OnlySelf",
      "type": "error"
    },
    {
      "inputs": [
        {
          "internalType": "address",
          "name": "sender",
          "type": "address"
        }
      ],
      "name": "SenderNotAllowed",
      "type": "error"
    },
    {
      "inputs": [
        {
          "internalType": "uint64",
          "name": "sourceChainSelector",
          "type": "uint64"
        }
      ],
      "name": "SourceChainNotAllowed",
      "type": "error"
    },
    {
      "anonymous": false,
      "inputs": [
        {
          "indexed": true,
          "internalType": "bytes32",
          "name": "messageId",
          "type": "bytes32"
        },
        {
          "indexed": false,
          "internalType": "bytes",
          "name": "reason",
          "type": "bytes"
        }
      ],
      "name": "MessageFailed",
      "type": "event"
    },
    {
      "anonymous": false,
      "inputs": [
        {
          "indexed": true,
          "internalType": "bytes32",
          "name": "messageId",
          "type": "bytes32"
        }
      ],
      "name": "MessageRecovered",
      "type": "event"
    },
    {
      "anonymous": false,
      "inputs": [
        {
          "indexed": true,
          "internalType": "address",
          "name": "from",
          "type": "address"
        },
        {
          "indexed": true,
          "internalType": "address",
          "name": "to",
          "type": "address"
        }
      ],
      "name": "OwnershipTransferRequested",
      "type": "event"
    },
    {
      "anonymous": false,
      "inputs": [
        {
          "indexed": true,
          "internalType": "address",
          "name": "from",
          "type": "address"
        },
        {
          "indexed": true,
          "internalType": "address",
          "name": "to",
          "type": "address"
        }
      ],
      "name": "OwnershipTransferred",
      "type": "event"
    },
    {
      "inputs": [],
      "name": "acceptOwnership",
      "outputs": [],
      "stateMutability": "nonpayable",
      "type": "function"
    },
    {
      "inputs": [
        {
          "internalType": "address",
          "name": "_sender",
          "type": "address"
        },
        {
          "internalType": "bool",
          "name": "_allowed",
          "type": "bool"
        }
      ],
      "name": "allowlistSender",
      "outputs": [],
      "stateMutability": "nonpayable",
      "type": "function"
    },
    {
      "inputs": [
        {
          "internalType": "uint64",
          "name": "_sourceChainSelector",
          "type": "uint64"
        },
        {
          "internalType": "bool",
          "name": "_allowed",
          "type": "bool"
        }
      ],
      "name": "allowlistSourceChain",
      "outputs": [],
      "stateMutability": "nonpayable",
      "type": "function"
    },
    {
      "inputs": [
        {
          "internalType": "address",
          "name": "sender",
          "type": "address"
        }
      ],
      "name": "allowlistedSenders",
      "outputs": [
        {
          "internalType": "bool",
          "name": "isAllowlisted",
          "type": "bool"
        }
      ],
      "stateMutability": "view",
      "type": "function"
    },
    {
      "inputs": [
        {
          "internalType": "uint64",
          "name": "chainSelecotor",
          "type": "uint64"
        }
      ],
      "name": "allowlistedSourceChains",
      "outputs": [
        {
          "internalType": "bool",
          "name": "isAllowlisted",
          "type": "bool"
        }
      ],
      "stateMutability": "view",
      "type": "function"
    },
    {
      "inputs": [
        {
          "components": [
            {
              "internalType": "bytes32",
              "name": "messageId",
              "type": "bytes32"
            },
            {
              "internalType": "uint64",
              "name": "sourceChainSelector",
              "type": "uint64"
            },
            {
              "internalType": "bytes",
              "name": "sender",
              "type": "bytes"
            },
            {
              "internalType": "bytes",
              "name": "data",
              "type": "bytes"
            },
            {
              "components": [
                {
                  "internalType": "address",
                  "name": "token",
                  "type": "address"
                },
                {
                  "internalType": "uint256",
                  "name": "amount",
                  "type": "uint256"
                }
              ],
              "internalType": "struct Client.EVMTokenAmount[]",
              "name": "destTokenAmounts",
              "type": "tuple[]"
            }
          ],
          "internalType": "struct Client.Any2EVMMessage",
          "name": "any2EvmMessage",
          "type": "tuple"
        }
      ],
      "name": "ccipReceive",
      "outputs": [],
      "stateMutability": "nonpayable",
      "type": "function"
    },
    {
      "inputs": [],
      "name": "getFailedMessagesIds",
      "outputs": [
        {
          "internalType": "bytes32[]",
          "name": "ids",
          "type": "bytes32[]"
        }
      ],
      "stateMutability": "view",
      "type": "function"
    },
    {
      "inputs": [],
      "name": "getRouter",
      "outputs": [
        {
          "internalType": "address",
          "name": "",
          "type": "address"
        }
      ],
      "stateMutability": "view",
      "type": "function"
    },
    {
      "inputs": [],
      "name": "owner",
      "outputs": [
        {
          "internalType": "address",
          "name": "",
          "type": "address"
        }
      ],
      "stateMutability": "view",
      "type": "function"
    },
    {
      "inputs": [
        {
          "components": [
            {
              "internalType": "bytes32",
              "name": "messageId",
              "type": "bytes32"
            },
            {
              "internalType": "uint64",
              "name": "sourceChainSelector",
              "type": "uint64"
            },
            {
              "internalType": "bytes",
              "name": "sender",
              "type": "bytes"
            },
            {
              "internalType": "bytes",
              "name": "data",
              "type": "bytes"
            },
            {
              "components": [
                {
                  "internalType": "address",
                  "name": "token",
                  "type": "address"
                },
                {
                  "internalType": "uint256",
                  "name": "amount",
                  "type": "uint256"
                }
              ],
              "internalType": "struct Client.EVMTokenAmount[]",
              "name": "destTokenAmounts",
              "type": "tuple[]"
            }
          ],
          "internalType": "struct Client.Any2EVMMessage",
          "name": "any2EvmMessage",
          "type": "tuple"
        }
      ],
      "name": "processMessage",
      "outputs": [],
      "stateMutability": "nonpayable",
      "type": "function"
    },
    {
      "inputs": [
        {
          "internalType": "bytes32",
          "name": "messageId",
          "type": "bytes32"
        },
        {
          "internalType": "address",
          "name": "tokenReceiver",
          "type": "address"
        }
      ],
      "name": "retryFailedMessage",
      "outputs": [],
      "stateMutability": "nonpayable",
      "type": "function"
    },
    {
      "inputs": [
        {
          "internalType": "bytes32",
          "name": "messageId",
          "type": "bytes32"
        }
      ],
      "name": "s_messageContents",
      "outputs": [
        {
          "internalType": "bytes32",
          "name": "messageId",
          "type": "bytes32"
        },
        {
          "internalType": "uint64",
          "name": "sourceChainSelector",
          "type": "uint64"
        },
        {
          "internalType": "bytes",
          "name": "sender",
          "type": "bytes"
        },
        {
          "internalType": "bytes",
          "name": "data",
          "type": "bytes"
        }
      ],
      "stateMutability": "view",
      "type": "function"
    },
    {
      "inputs": [
        {
          "internalType": "bool",
          "name": "simRevert",
          "type": "bool"
        }
      ],
      "name": "setSimRevert",
      "outputs": [],
      "stateMutability": "nonpayable",
      "type": "function"
    },
    {
      "inputs": [
        {
          "internalType": "bytes4",
          "name": "interfaceId",
          "type": "bytes4"
        }
      ],
      "name": "supportsInterface",
      "outputs": [
        {
          "internalType": "bool",
          "name": "",
          "type": "bool"
        }
      ],
      "stateMutability": "pure",
      "type": "function"
    },
    {
      "inputs": [
        {
          "internalType": "address",
          "name": "to",
          "type": "address"
        }
      ],
      "name": "transferOwnership",
      "outputs": [],
      "stateMutability": "nonpayable",
      "type": "function"
    }
  ],
  "bytecode": "0x60e06040526000600160146101000a81548160ff0219169083151502179055503480156200002c57600080fd5b5060405162003e6d38038062003e6d833981810160405281019062000052919062000407565b3380600085600073ffffffffffffffffffffffffffffffffffffffff168173ffffffffffffffffffffffffffffffffffffffff1603620000cc5760006040517fd7f73334000000000000000000000000000000000000000000000000000000008152600401620000c3919062000474565b60405180910390fd5b8073ffffffffffffffffffffffffffffffffffffffff1660808173ffffffffffffffffffffffffffffffffffffffff168152505050600073ffffffffffffffffffffffffffffffffffffffff168273ffffffffffffffffffffffffffffffffffffffff160362000173576040517f08c379a00000000000000000000000000000000000000000000000000000000081526004016200016a90620004f2565b60405180910390fd5b816000806101000a81548173ffffffffffffffffffffffffffffffffffffffff021916908373ffffffffffffffffffffffffffffffffffffffff160217905550600073ffffffffffffffffffffffffffffffffffffffff168173ffffffffffffffffffffffffffffffffffffffff1614620001fa57620001f9816200026e60201b60201c565b5b5050508173ffffffffffffffffffffffffffffffffffffffff1660a08173ffffffffffffffffffffffffffffffffffffffff16815250508073ffffffffffffffffffffffffffffffffffffffff1660c08173ffffffffffffffffffffffffffffffffffffffff168152505050505062000586565b3373ffffffffffffffffffffffffffffffffffffffff168173ffffffffffffffffffffffffffffffffffffffff1603620002df576040517f08c379a0000000000000000000000000000000000000000000000000000000008152600401620002d69062000564565b60405180910390fd5b80600160006101000a81548173ffffffffffffffffffffffffffffffffffffffff021916908373ffffffffffffffffffffffffffffffffffffffff1602179055508073ffffffffffffffffffffffffffffffffffffffff1660008054906101000a900473ffffffffffffffffffffffffffffffffffffffff1673ffffffffffffffffffffffffffffffffffffffff167fed8889f560326eb138920d842192f0eb3dd22b4f139c87a2c57538e05bae127860405160405180910390a350565b600080fd5b600073ffffffffffffffffffffffffffffffffffffffff82169050919050565b6000620003cf82620003a2565b9050919050565b620003e181620003c2565b8114620003ed57600080fd5b50565b6000815190506200040181620003d6565b92915050565b6000806000606084860312156200042357620004226200039d565b5b60006200043386828701620003f0565b93505060206200044686828701620003f0565b92505060406200045986828701620003f0565b9150509250925092565b6200046e81620003c2565b82525050565b60006020820190506200048b600083018462000463565b92915050565b600082825260208201905092915050565b7f43616e6e6f7420736574206f776e657220746f207a65726f0000000000000000600082015250565b6000620004da60188362000491565b9150620004e782620004a2565b602082019050919050565b600060208201905081810360008301526200050d81620004cb565b9050919050565b7f43616e6e6f74207472616e7366657220746f2073656c66000000000000000000600082015250565b60006200054c60178362000491565b9150620005598262000514565b602082019050919050565b600060208201905081810360008301526200057f816200053d565b9050919050565b60805160a05160c05161389b620005d2600039600081816112fc015281816113d101526114540152600081816114ff01526115820152600081816109f00152610d15015261389b6000f3fe608060405234801561001057600080fd5b50600436106100f55760003560e01c806385572ffb11610097578063d0d1fc3d11610066578063d0d1fc3d1461025e578063db04fa4914610291578063eab5b02c146102ad578063f2fde38b146102c9576100f5565b806385572ffb146101ea5780638da5cb5b14610206578063b0f479a114610224578063cf6730f814610242576100f5565b806352f813c3116100d357806352f813c3146101765780636159ada11461019257806368f9a9cc146101c257806379ba5097146101e0576100f5565b806301ffc9a7146100fa578063369f7f661461012a5780634030d52114610146575b600080fd5b610114600480360381019061010f9190611c94565b6102e5565b6040516101219190611cdc565b60405180910390f35b610144600480360381019061013f9190611d8b565b6103b7565b005b610160600480360381019061015b9190611e0b565b610736565b60405161016d9190611cdc565b60405180910390f35b610190600480360381019061018b9190611e64565b610756565b005b6101ac60048036038101906101a79190611e91565b61077b565b6040516101b99190611cdc565b60405180910390f35b6101ca61079b565b6040516101d79190611f7c565b60405180910390f35b6101e8610859565b005b61020460048036038101906101ff9190611fc2565b6109ee565b005b61020e610ce8565b60405161021b919061201a565b60405180910390f35b61022c610d11565b604051610239919061201a565b60405180910390f35b61025c60048036038101906102579190611fc2565b610d39565b005b61027860048036038101906102739190612035565b610f30565b6040516102889493929190612110565b60405180910390f35b6102ab60048036038101906102a69190612163565b611084565b005b6102c760048036038101906102c291906121a3565b6110cf565b005b6102e360048036038101906102de9190611e91565b611132565b005b60007f85572ffb000000000000000000000000000000000000000000000000000000007bffffffffffffffffffffffffffffffffffffffffffffffffffffffff1916827bffffffffffffffffffffffffffffffffffffffffffffffffffffffff191614806103b057507f01ffc9a7000000000000000000000000000000000000000000000000000000007bffffffffffffffffffffffffffffffffffffffffffffffffffffffff1916827bffffffffffffffffffffffffffffffffffffffffffffffffffffffff1916145b9050919050565b6103bf611146565b6001808111156103d2576103d16121e3565b5b6103e68360026111d690919063ffffffff16565b1461042857816040517fb6e7826000000000000000000000000000000000000000000000000000000000815260040161041f9190612212565b60405180910390fd5b61045182600060018111156104405761043f6121e3565b5b60026111f09092919063ffffffff16565b506000600760008481526020019081526020016000206040518060a0016040529081600082015481526020016001820160009054906101000a900467ffffffffffffffff1667ffffffffffffffff1667ffffffffffffffff1681526020016002820180546104be9061225c565b80601f01602080910402602001604051908101604052809291908181526020018280546104ea9061225c565b80156105375780601f1061050c57610100808354040283529160200191610537565b820191906000526020600020905b81548152906001019060200180831161051a57829003601f168201915b505050505081526020016003820180546105509061225c565b80601f016020809104026020016040519081016040528092919081815260200182805461057c9061225c565b80156105c95780601f1061059e576101008083540402835291602001916105c9565b820191906000526020600020905b8154815290600101906020018083116105ac57829003601f168201915b5050505050815260200160048201805480602002602001604051908101604052809291908181526020016000905b8282101561068957838290600052602060002090600202016040518060400160405290816000820160009054906101000a900473ffffffffffffffffffffffffffffffffffffffff1673ffffffffffffffffffffffffffffffffffffffff1673ffffffffffffffffffffffffffffffffffffffff168152602001600182015481525050815260200190600101906105f7565b505050508152505090506107048282608001516000815181106106af576106ae61228d565b5b60200260200101516020015183608001516000815181106106d3576106d261228d565b5b60200260200101516000015173ffffffffffffffffffffffffffffffffffffffff1661120c9092919063ffffffff16565b827fef3bf8c64bc480286c4f3503b870ceb23e648d2d902e31fb7bb46680da6de8ad60405160405180910390a2505050565b60056020528060005260406000206000915054906101000a900460ff1681565b61075e611146565b80600160146101000a81548160ff02191690831515021790555050565b60066020528060005260406000206000915054906101000a900460ff1681565b606060006107a96002611292565b905060008167ffffffffffffffff8111156107c7576107c66122bc565b5b6040519080825280602002602001820160405280156107f55781602001602082028036833780820191505090505b50905060005b828110156108505760006108198260026112a790919063ffffffff16565b509050808383815181106108305761082f61228d565b5b60200260200101818152505050808061084890612324565b9150506107fb565b50809250505090565b600160009054906101000a900473ffffffffffffffffffffffffffffffffffffffff1673ffffffffffffffffffffffffffffffffffffffff163373ffffffffffffffffffffffffffffffffffffffff16146108e9576040517f08c379a00000000000000000000000000000000000000000000000000000000081526004016108e0906123c9565b60405180910390fd5b60008060009054906101000a900473ffffffffffffffffffffffffffffffffffffffff169050336000806101000a81548173ffffffffffffffffffffffffffffffffffffffff021916908373ffffffffffffffffffffffffffffffffffffffff1602179055506000600160006101000a81548173ffffffffffffffffffffffffffffffffffffffff021916908373ffffffffffffffffffffffffffffffffffffffff1602179055503373ffffffffffffffffffffffffffffffffffffffff168173ffffffffffffffffffffffffffffffffffffffff167f8be0079c531659141344cd1fd0a4f28419497f9722a3daafe3b4186f6b6457e060405160405180910390a350565b7f000000000000000000000000000000000000000000000000000000000000000073ffffffffffffffffffffffffffffffffffffffff163373ffffffffffffffffffffffffffffffffffffffff1614610a7e57336040517fd7f73334000000000000000000000000000000000000000000000000000000008152600401610a75919061201a565b60405180910390fd5b806020016020810190610a919190611e0b565b818060400190610aa191906123f8565b810190610aae9190612499565b600560008367ffffffffffffffff1667ffffffffffffffff16815260200190815260200160002060009054906101000a900460ff16610b2457816040517f213c2678000000000000000000000000000000000000000000000000000000008152600401610b1b91906124c6565b60405180910390fd5b600660008273ffffffffffffffffffffffffffffffffffffffff1673ffffffffffffffffffffffffffffffffffffffff16815260200190815260200160002060009054906101000a900460ff16610bb257806040517fd0d25976000000000000000000000000000000000000000000000000000000008152600401610ba9919061201a565b60405180910390fd5b3073ffffffffffffffffffffffffffffffffffffffff1663cf6730f8846040518263ffffffff1660e01b8152600401610beb9190612851565b600060405180830381600087803b158015610c0557600080fd5b505af1925050508015610c16575060015b610ce2573d8060008114610c46576040519150601f19603f3d011682016040523d82523d6000602084013e610c4b565b606091505b50610c788460000135600180811115610c6757610c666121e3565b5b60026111f09092919063ffffffff16565b508360076000866000013581526020019081526020016000208181610c9d9190613096565b90505083600001357f55bc02a9ef6f146737edeeb425738006f67f077e7138de3bf84a15bde1a5b56f82604051610cd491906130a4565b60405180910390a250610ce3565b5b505050565b60008060009054906101000a900473ffffffffffffffffffffffffffffffffffffffff16905090565b60007f0000000000000000000000000000000000000000000000000000000000000000905090565b3073ffffffffffffffffffffffffffffffffffffffff163373ffffffffffffffffffffffffffffffffffffffff1614610d9e576040517f14d4a4e800000000000000000000000000000000000000000000000000000000815260040160405180910390fd5b806020016020810190610db19190611e0b565b818060400190610dc191906123f8565b810190610dce9190612499565b600560008367ffffffffffffffff1667ffffffffffffffff16815260200190815260200160002060009054906101000a900460ff16610e4457816040517f213c2678000000000000000000000000000000000000000000000000000000008152600401610e3b91906124c6565b60405180910390fd5b600660008273ffffffffffffffffffffffffffffffffffffffff1673ffffffffffffffffffffffffffffffffffffffff16815260200190815260200160002060009054906101000a900460ff16610ed257806040517fd0d25976000000000000000000000000000000000000000000000000000000008152600401610ec9919061201a565b60405180910390fd5b600160149054906101000a900460ff1615610f19576040517f79f79e0b00000000000000000000000000000000000000000000000000000000815260040160405180910390fd5b610f2b83610f26906133bf565b6112d0565b505050565b60076020528060005260406000206000915090508060000154908060010160009054906101000a900467ffffffffffffffff1690806002018054610f739061225c565b80601f0160208091040260200160405190810160405280929190818152602001828054610f9f9061225c565b8015610fec5780601f10610fc157610100808354040283529160200191610fec565b820191906000526020600020905b815481529060010190602001808311610fcf57829003601f168201915b5050505050908060030180546110019061225c565b80601f016020809104026020016040519081016040528092919081815260200182805461102d9061225c565b801561107a5780601f1061104f5761010080835404028352916020019161107a565b820191906000526020600020905b81548152906001019060200180831161105d57829003601f168201915b5050505050905084565b61108c611146565b80600560008467ffffffffffffffff1667ffffffffffffffff16815260200190815260200160002060006101000a81548160ff0219169083151502179055505050565b6110d7611146565b80600660008473ffffffffffffffffffffffffffffffffffffffff1673ffffffffffffffffffffffffffffffffffffffff16815260200190815260200160002060006101000a81548160ff0219169083151502179055505050565b61113a611146565b61114381611613565b50565b60008054906101000a900473ffffffffffffffffffffffffffffffffffffffff1673ffffffffffffffffffffffffffffffffffffffff163373ffffffffffffffffffffffffffffffffffffffff16146111d4576040517f08c379a00000000000000000000000000000000000000000000000000000000081526004016111cb9061341e565b60405180910390fd5b565b60006111e5836000018361173f565b60001c905092915050565b600061120384600001848460001b6117bb565b90509392505050565b61128d8363a9059cbb60e01b848460405160240161122b92919061344d565b604051602081830303815290604052907bffffffffffffffffffffffffffffffffffffffffffffffffffffffff19166020820180517bffffffffffffffffffffffffffffffffffffffffffffffffffffffff83818316178352505050506117f6565b505050565b60006112a0826000016118bd565b9050919050565b6000806000806112ba86600001866118d2565b91509150818160001c9350935050509250929050565b600081608001516000815181106112ea576112e961228d565b5b602002602001015160000151905060007f000000000000000000000000000000000000000000000000000000000000000073ffffffffffffffffffffffffffffffffffffffff1663d3c7c2c76040518163ffffffff1660e01b81526004016040805180830381865afa158015611364573d6000803e3d6000fd5b505050506040513d601f19601f82011682018060405250810190611388919061348b565b915050600083608001516000815181106113a5576113a461228d565b5b60200260200101516020015190508273ffffffffffffffffffffffffffffffffffffffff1663095ea7b37f0000000000000000000000000000000000000000000000000000000000000000836040518363ffffffff1660e01b815260040161140e92919061344d565b6020604051808303816000875af115801561142d573d6000803e3d6000fd5b505050506040513d601f19601f8201168201806040525081019061145191906134e0565b507f000000000000000000000000000000000000000000000000000000000000000073ffffffffffffffffffffffffffffffffffffffff1663df791e508484846040518463ffffffff1660e01b81526004016114af9392919061350d565b600060405180830381600087803b1580156114c957600080fd5b505af11580156114dd573d6000803e3d6000fd5b505050508173ffffffffffffffffffffffffffffffffffffffff1663095ea7b37f0000000000000000000000000000000000000000000000000000000000000000836040518363ffffffff1660e01b815260040161153c92919061344d565b6020604051808303816000875af115801561155b573d6000803e3d6000fd5b505050506040513d601f19601f8201168201806040525081019061157f91906134e0565b507f000000000000000000000000000000000000000000000000000000000000000073ffffffffffffffffffffffffffffffffffffffff1663f2b9fdb883836040518363ffffffff1660e01b81526004016115db92919061344d565b600060405180830381600087803b1580156115f557600080fd5b505af1158015611609573d6000803e3d6000fd5b5050505050505050565b3373ffffffffffffffffffffffffffffffffffffffff168173ffffffffffffffffffffffffffffffffffffffff1603611681576040517f08c379a000000000000000000000000000000000000000000000000000000000815260040161167890613590565b60405180910390fd5b80600160006101000a81548173ffffffffffffffffffffffffffffffffffffffff021916908373ffffffffffffffffffffffffffffffffffffffff1602179055508073ffffffffffffffffffffffffffffffffffffffff1660008054906101000a900473ffffffffffffffffffffffffffffffffffffffff1673ffffffffffffffffffffffffffffffffffffffff167fed8889f560326eb138920d842192f0eb3dd22b4f139c87a2c57538e05bae127860405160405180910390a350565b6000808360020160008481526020019081526020016000205490506000801b8114158061177257506117718484611912565b5b6117b1576040517f08c379a00000000000000000000000000000000000000000000000000000000081526004016117a8906135fc565b60405180910390fd5b8091505092915050565b600081846002016000858152602001908152602001600020819055506117ed838560000161193290919063ffffffff16565b90509392505050565b6000611858826040518060400160405280602081526020017f5361666545524332303a206c6f772d6c6576656c2063616c6c206661696c65648152508573ffffffffffffffffffffffffffffffffffffffff166119499092919063ffffffff16565b90506000815111156118b8578080602001905181019061187891906134e0565b6118b7576040517f08c379a00000000000000000000000000000000000000000000000000000000081526004016118ae9061368e565b60405180910390fd5b5b505050565b60006118cb82600001611961565b9050919050565b60008060006118ed848660000161197690919063ffffffff16565b9050808560020160008381526020019081526020016000205492509250509250929050565b600061192a828460000161198d90919063ffffffff16565b905092915050565b600061194183600001836119a4565b905092915050565b60606119588484600085611a14565b90509392505050565b600061196f82600001611ae1565b9050919050565b60006119858360000183611af2565b905092915050565b600061199c8360000183611b1d565b905092915050565b60006119b08383611b1d565b611a09578260000182908060018154018082558091505060019003906000526020600020016000909190919091505582600001805490508360010160008481526020019081526020016000208190555060019050611a0e565b600090505b92915050565b606082471015611a59576040517f08c379a0000000000000000000000000000000000000000000000000000000008152600401611a5090613720565b60405180910390fd5b6000808673ffffffffffffffffffffffffffffffffffffffff168587604051611a82919061377c565b60006040518083038185875af1925050503d8060008114611abf576040519150601f19603f3d011682016040523d82523d6000602084013e611ac4565b606091505b5091509150611ad587838387611b40565b92505050949350505050565b600081600001805490509050919050565b6000826000018281548110611b0a57611b0961228d565b5b9060005260206000200154905092915050565b600080836001016000848152602001908152602001600020541415905092915050565b60608315611ba2576000835103611b9a57611b5a85611bb5565b611b99576040517f08c379a0000000000000000000000000000000000000000000000000000000008152600401611b90906137df565b60405180910390fd5b5b829050611bad565b611bac8383611bd8565b5b949350505050565b6000808273ffffffffffffffffffffffffffffffffffffffff163b119050919050565b600082511115611beb5781518083602001fd5b806040517f08c379a0000000000000000000000000000000000000000000000000000000008152600401611c1f9190613843565b60405180910390fd5b6000604051905090565b600080fd5b600080fd5b60007fffffffff0000000000000000000000000000000000000000000000000000000082169050919050565b611c7181611c3c565b8114611c7c57600080fd5b50565b600081359050611c8e81611c68565b92915050565b600060208284031215611caa57611ca9611c32565b5b6000611cb884828501611c7f565b91505092915050565b60008115159050919050565b611cd681611cc1565b82525050565b6000602082019050611cf16000830184611ccd565b92915050565b6000819050919050565b611d0a81611cf7565b8114611d1557600080fd5b50565b600081359050611d2781611d01565b92915050565b600073ffffffffffffffffffffffffffffffffffffffff82169050919050565b6000611d5882611d2d565b9050919050565b611d6881611d4d565b8114611d7357600080fd5b50565b600081359050611d8581611d5f565b92915050565b60008060408385031215611da257611da1611c32565b5b6000611db085828601611d18565b9250506020611dc185828601611d76565b9150509250929050565b600067ffffffffffffffff82169050919050565b611de881611dcb565b8114611df357600080fd5b50565b600081359050611e0581611ddf565b92915050565b600060208284031215611e2157611e20611c32565b5b6000611e2f84828501611df6565b91505092915050565b611e4181611cc1565b8114611e4c57600080fd5b50565b600081359050611e5e81611e38565b92915050565b600060208284031215611e7a57611e79611c32565b5b6000611e8884828501611e4f565b91505092915050565b600060208284031215611ea757611ea6611c32565b5b6000611eb584828501611d76565b91505092915050565b600081519050919050565b600082825260208201905092915050565b6000819050602082019050919050565b611ef381611cf7565b82525050565b6000611f058383611eea565b60208301905092915050565b6000602082019050919050565b6000611f2982611ebe565b611f338185611ec9565b9350611f3e83611eda565b8060005b83811015611f6f578151611f568882611ef9565b9750611f6183611f11565b925050600181019050611f42565b5085935050505092915050565b60006020820190508181036000830152611f968184611f1e565b905092915050565b600080fd5b600060a08284031215611fb957611fb8611f9e565b5b81905092915050565b600060208284031215611fd857611fd7611c32565b5b600082013567ffffffffffffffff811115611ff657611ff5611c37565b5b61200284828501611fa3565b91505092915050565b61201481611d4d565b82525050565b600060208201905061202f600083018461200b565b92915050565b60006020828403121561204b5761204a611c32565b5b600061205984828501611d18565b91505092915050565b61206b81611cf7565b82525050565b61207a81611dcb565b82525050565b600081519050919050565b600082825260208201905092915050565b60005b838110156120ba57808201518184015260208101905061209f565b60008484015250505050565b6000601f19601f8301169050919050565b60006120e282612080565b6120ec818561208b565b93506120fc81856020860161209c565b612105816120c6565b840191505092915050565b60006080820190506121256000830187612062565b6121326020830186612071565b818103604083015261214481856120d7565b9050818103606083015261215881846120d7565b905095945050505050565b6000806040838503121561217a57612179611c32565b5b600061218885828601611df6565b925050602061219985828601611e4f565b9150509250929050565b600080604083850312156121ba576121b9611c32565b5b60006121c885828601611d76565b92505060206121d985828601611e4f565b9150509250929050565b7f4e487b7100000000000000000000000000000000000000000000000000000000600052602160045260246000fd5b60006020820190506122276000830184612062565b92915050565b7f4e487b7100000000000000000000000000000000000000000000000000000000600052602260045260246000fd5b6000600282049050600182168061227457607f821691505b6020821081036122875761228661222d565b5b50919050565b7f4e487b7100000000000000000000000000000000000000000000000000000000600052603260045260246000fd5b7f4e487b7100000000000000000000000000000000000000000000000000000000600052604160045260246000fd5b7f4e487b7100000000000000000000000000000000000000000000000000000000600052601160045260246000fd5b6000819050919050565b600061232f8261231a565b91507fffffffffffffffffffffffffffffffffffffffffffffffffffffffffffffffff8203612361576123606122eb565b5b600182019050919050565b600082825260208201905092915050565b7f4d7573742062652070726f706f736564206f776e657200000000000000000000600082015250565b60006123b360168361236c565b91506123be8261237d565b602082019050919050565b600060208201905081810360008301526123e2816123a6565b9050919050565b600080fd5b600080fd5b600080fd5b60008083356001602003843603038112612415576124146123e9565b5b80840192508235915067ffffffffffffffff821115612437576124366123ee565b5b602083019250600182023603831315612453576124526123f3565b5b509250929050565b600061246682611d2d565b9050919050565b6124768161245b565b811461248157600080fd5b50565b6000813590506124938161246d565b92915050565b6000602082840312156124af576124ae611c32565b5b60006124bd84828501612484565b91505092915050565b60006020820190506124db6000830184612071565b92915050565b60006124f06020840184611d18565b905092915050565b60006125076020840184611df6565b905092915050565b61251881611dcb565b82525050565b600080fd5b600080fd5b600080fd5b6000808335600160200384360303811261254a57612549612528565b5b83810192508235915060208301925067ffffffffffffffff8211156125725761257161251e565b5b60018202360383131561258857612587612523565b5b509250929050565b600082825260208201905092915050565b82818337600083830152505050565b60006125bc8385612590565b93506125c98385846125a1565b6125d2836120c6565b840190509392505050565b600080833560016020038436030381126125fa576125f9612528565b5b83810192508235915060208301925067ffffffffffffffff8211156126225761262161251e565b5b60408202360383131561263857612637612523565b5b509250929050565b600082825260208201905092915050565b6000819050919050565b600061266a6020840184611d76565b905092915050565b61267b81611d4d565b82525050565b61268a8161231a565b811461269557600080fd5b50565b6000813590506126a781612681565b92915050565b60006126bc6020840184612698565b905092915050565b6126cd8161231a565b82525050565b604082016126e4600083018361265b565b6126f16000850182612672565b506126ff60208301836126ad565b61270c60208501826126c4565b50505050565b600061271e83836126d3565b60408301905092915050565b600082905092915050565b6000604082019050919050565b600061274e8385612640565b935061275982612651565b8060005b858110156127925761276f828461272a565b6127798882612712565b975061278483612735565b92505060018101905061275d565b5085925050509392505050565b600060a083016127b260008401846124e1565b6127bf6000860182611eea565b506127cd60208401846124f8565b6127da602086018261250f565b506127e8604084018461252d565b85830360408701526127fb8382846125b0565b9250505061280c606084018461252d565b858303606087015261281f8382846125b0565b9250505061283060808401846125dd565b8583036080870152612843838284612742565b925050508091505092915050565b6000602082019050818103600083015261286b818461279f565b905092915050565b7f4e487b7100000000000000000000000000000000000000000000000000000000600052600060045260246000fd5b600081356128af81611d01565b80915050919050565b60008160001b9050919050565b60007fffffffffffffffffffffffffffffffffffffffffffffffffffffffffffffffff6128f1846128b8565b9350801983169250808416831791505092915050565b600061291282611cf7565b9050919050565b60008160001c9050919050565b600061293182612919565b9050919050565b61294182612907565b61295461294d82612926565b83546128c5565b8255505050565b6000813561296881611ddf565b80915050919050565b600067ffffffffffffffff612985846128b8565b9350801983169250808416831791505092915050565b6000819050919050565b60006129c06129bb6129b684611dcb565b61299b565b611dcb565b9050919050565b6000819050919050565b6129da826129a5565b6129ed6129e6826129c7565b8354612971565b8255505050565b600082905092915050565b60008190508160005260206000209050919050565b60006020601f8301049050919050565b600082821b905092915050565b600060088302612a617fffffffffffffffffffffffffffffffffffffffffffffffffffffffffffffffff82612a24565b612a6b8683612a24565b95508019841693508086168417925050509392505050565b6000612a9e612a99612a948461231a565b61299b565b61231a565b9050919050565b6000819050919050565b612ab883612a83565b612acc612ac482612aa5565b848454612a31565b825550505050565b600090565b612ae1612ad4565b612aec818484612aaf565b505050565b5b81811015612b1057612b05600082612ad9565b600181019050612af2565b5050565b601f821115612b5557612b26816129ff565b612b2f84612a14565b81016020851015612b3e578190505b612b52612b4a85612a14565b830182612af1565b50505b505050565b600082821c905092915050565b6000612b7860001984600802612b5a565b1980831691505092915050565b6000612b918383612b67565b9150826002028217905092915050565b612bab83836129f4565b67ffffffffffffffff811115612bc457612bc36122bc565b5b612bce825461225c565b612bd9828285612b14565b6000601f831160018114612c085760008415612bf6578287013590505b612c008582612b85565b865550612c68565b601f198416612c16866129ff565b60005b82811015612c3e57848901358255600182019150602085019450602081019050612c19565b86831015612c5b5784890135612c57601f891682612b67565b8355505b6001600288020188555050505b50505050505050565b612c7c838383612ba1565b505050565b60008083356001602003843603038112612c9e57612c9d6123e9565b5b80840192508235915067ffffffffffffffff821115612cc057612cbf6123ee565b5b602083019250604082023603831315612cdc57612cdb6123f3565b5b509250929050565b600081549050919050565b6000612cfa8261231a565b9150612d058361231a565b9250828202612d138161231a565b91508282048414831517612d2a57612d296122eb565b5b5092915050565b6000819050612d41826002612cef565b9050919050565b60008190508160005260206000209050919050565b600080820155612d71600060018301612ad9565b50565b60008214612d8557612d84612873565b5b612d8e81612d5d565b5050565b5b81811015612db157612da6600082612d74565b600281019050612d93565b5050565b81831015612dee57612dc682612d31565b612dcf84612d31565b612dd883612d48565b818101838201612de88183612d92565b50505050505b505050565b68010000000000000000821115612e0d57612e0c6122bc565b5b612e1681612ce4565b828255612e24838284612db5565b505050565b600082905092915050565b60008135612e4181611d5f565b80915050919050565b600073ffffffffffffffffffffffffffffffffffffffff612e6a846128b8565b9350801983169250808416831791505092915050565b6000612e9b612e96612e9184611d2d565b61299b565b611d2d565b9050919050565b6000612ead82612e80565b9050919050565b6000612ebf82612ea2565b9050919050565b6000819050919050565b612ed982612eb4565b612eec612ee582612ec6565b8354612e4a565b8255505050565b60008135612f0081612681565b80915050919050565b612f1282612a83565b612f25612f1e82612aa5565b83546128c5565b8255505050565b600081016000830180612f3e81612e34565b9050612f4a8184612ed0565b505050600181016020830180612f5f81612ef3565b9050612f6b8184612f09565b5050505050565b612f7c8282612f2c565b5050565b612f8a8383612e29565b612f948183612df3565b612f9d83612651565b612fa683612d48565b60005b83811015612fd45782612fbc8184612f72565b60408401935060028301925050600181019050612fa9565b50505050505050565b612fe8838383612f80565b505050565b600081016000830180612fff816128a2565b905061300b8184612938565b5050506001810160208301806130208161295b565b905061302c81846129d1565b505050600281016040830161304181856123f8565b61304c818386612c71565b50505050600381016060830161306281856123f8565b61306d818386612c71565b5050505060048101608083016130838185612c81565b61308e818386612fdd565b505050505050565b6130a08282612fed565b5050565b600060208201905081810360008301526130be81846120d7565b905092915050565b600080fd5b6130d4826120c6565b810181811067ffffffffffffffff821117156130f3576130f26122bc565b5b80604052505050565b6000613106611c28565b905061311282826130cb565b919050565b600080fd5b600080fd5b600080fd5b600067ffffffffffffffff821115613141576131406122bc565b5b61314a826120c6565b9050602081019050919050565b600061316a61316584613126565b6130fc565b90508281526020810184848401111561318657613185613121565b5b6131918482856125a1565b509392505050565b600082601f8301126131ae576131ad61311c565b5b81356131be848260208601613157565b91505092915050565b600067ffffffffffffffff8211156131e2576131e16122bc565b5b602082029050602081019050919050565b600080fd5b60006040828403121561320e5761320d6130c6565b5b61321860406130fc565b9050600061322884828501611d76565b600083015250602061323c84828501612698565b60208301525092915050565b600061325b613256846131c7565b6130fc565b9050808382526020820190506040840283018581111561327e5761327d6131f3565b5b835b818110156132a7578061329388826131f8565b845260208401935050604081019050613280565b5050509392505050565b600082601f8301126132c6576132c561311c565b5b81356132d6848260208601613248565b91505092915050565b600060a082840312156132f5576132f46130c6565b5b6132ff60a06130fc565b9050600061330f84828501611d18565b600083015250602061332384828501611df6565b602083015250604082013567ffffffffffffffff81111561334757613346613117565b5b61335384828501613199565b604083015250606082013567ffffffffffffffff81111561337757613376613117565b5b61338384828501613199565b606083015250608082013567ffffffffffffffff8111156133a7576133a6613117565b5b6133b3848285016132b1565b60808301525092915050565b60006133cb36836132df565b9050919050565b7f4f6e6c792063616c6c61626c65206279206f776e657200000000000000000000600082015250565b600061340860168361236c565b9150613413826133d2565b602082019050919050565b60006020820190508181036000830152613437816133fb565b9050919050565b6134478161231a565b82525050565b6000604082019050613462600083018561200b565b61346f602083018461343e565b9392505050565b60008151905061348581611d5f565b92915050565b600080604083850312156134a2576134a1611c32565b5b60006134b085828601613476565b92505060206134c185828601613476565b9150509250929050565b6000815190506134da81611e38565b92915050565b6000602082840312156134f6576134f5611c32565b5b6000613504848285016134cb565b91505092915050565b6000606082019050613522600083018661200b565b61352f602083018561200b565b61353c604083018461343e565b949350505050565b7f43616e6e6f74207472616e7366657220746f2073656c66000000000000000000600082015250565b600061357a60178361236c565b915061358582613544565b602082019050919050565b600060208201905081810360008301526135a98161356d565b9050919050565b7f456e756d657261626c654d61703a206e6f6e6578697374656e74206b65790000600082015250565b60006135e6601e8361236c565b91506135f1826135b0565b602082019050919050565b60006020820190508181036000830152613615816135d9565b9050919050565b7f5361666545524332303a204552433230206f7065726174696f6e20646964206e60008201527f6f74207375636365656400000000000000000000000000000000000000000000602082015250565b6000613678602a8361236c565b91506136838261361c565b604082019050919050565b600060208201905081810360008301526136a78161366b565b9050919050565b7f416464726573733a20696e73756666696369656e742062616c616e636520666f60008201527f722063616c6c0000000000000000000000000000000000000000000000000000602082015250565b600061370a60268361236c565b9150613715826136ae565b604082019050919050565b60006020820190508181036000830152613739816136fd565b9050919050565b600081905092915050565b600061375682612080565b6137608185613740565b935061377081856020860161209c565b80840191505092915050565b6000613788828461374b565b915081905092915050565b7f416464726573733a2063616c6c20746f206e6f6e2d636f6e7472616374000000600082015250565b60006137c9601d8361236c565b91506137d482613793565b602082019050919050565b600060208201905081810360008301526137f8816137bc565b9050919050565b600081519050919050565b6000613815826137ff565b61381f818561236c565b935061382f81856020860161209c565b613838816120c6565b840191505092915050565b6000602082019050818103600083015261385d818461380a565b90509291505056fea26469706673582212205bd6d09aa432cf971c67e0800e75c3aca29ebed635d713fb112b14260ad1237664736f6c63430008140033",
  "linkReferences": {},
  "deployedLinkReferences": {}
}