{
  "_format": "hh-sol-artifact-1",
  "contractName": "SwapTestnetUSDC",
  "sourceName": "contracts/SwapTestnetUSDC.sol",
  "abi": [
    {
      "inputs": [
        {
          "internalType": "address",
          "name": "usdcToken",
          "type": "address"
        },
        {
          "internalType": "address",
          "name": "compoundUsdcToken",
          "type": "address"
        },
        {
          "internalType": "address",
          "name": "fauceteer",
          "type": "address"
        }
      ],
      "stateMutability": "nonpayable",
      "type": "constructor"
    },
    {
      "inputs": [],
      "name": "ReentrancyGuardReentrantCall",
      "type": "error"
    },
    {
      "anonymous": false,
      "inputs": [
        {
          "indexed": false,
          "internalType": "address",
          "name": "tokenIn",
          "type": "address"
        },
        {
          "indexed": false,
          "internalType": "address",
          "name": "tokenOut",
          "type": "address"
        },
        {
          "indexed": false,
          "internalType": "uint256",
          "name": "amount",
          "type": "uint256"
        },
        {
          "indexed": false,
          "internalType": "address",
          "name": "trader",
          "type": "address"
        }
      ],
      "name": "Swap",
      "type": "event"
    },
    {
      "inputs": [],
      "name": "getSupportedTokens",
      "outputs": [
        {
          "internalType": "address",
          "name": "usdcToken",
          "type": "address"
        },
        {
          "internalType": "address",
          "name": "compoundUsdcToken",
          "type": "address"
        }
      ],
      "stateMutability": "view",
      "type": "function"
    },
    {
      "inputs": [
        {
          "internalType": "address",
          "name": "tokenIn",
          "type": "address"
        },
        {
          "internalType": "address",
          "name": "tokenOut",
          "type": "address"
        },
        {
          "internalType": "uint256",
          "name": "amount",
          "type": "uint256"
        }
      ],
      "name": "swap",
      "outputs": [],
      "stateMutability": "nonpayable",
      "type": "function"
    }
  ],
  "bytecode": "0x60c06040523480156200001157600080fd5b5060405162000def38038062000def833981810160405281019062000037919062000189565b60016000819055508273ffffffffffffffffffffffffffffffffffffffff1660808173ffffffffffffffffffffffffffffffffffffffff16815250508173ffffffffffffffffffffffffffffffffffffffff1660a08173ffffffffffffffffffffffffffffffffffffffff16815250508073ffffffffffffffffffffffffffffffffffffffff166367a5cd06836040518263ffffffff1660e01b8152600401620000e29190620001f6565b600060405180830381600087803b158015620000fd57600080fd5b505af115801562000112573d6000803e3d6000fd5b5050505050505062000213565b600080fd5b600073ffffffffffffffffffffffffffffffffffffffff82169050919050565b6000620001518262000124565b9050919050565b620001638162000144565b81146200016f57600080fd5b50565b600081519050620001838162000158565b92915050565b600080600060608486031215620001a557620001a46200011f565b5b6000620001b58682870162000172565b9350506020620001c88682870162000172565b9250506040620001db8682870162000172565b9150509250925092565b620001f08162000144565b82525050565b60006020820190506200020d6000830184620001e5565b92915050565b60805160a051610b9d6200025260003960008181609c0152818161012201526101d0015260008181607b0152818160cd015261017b0152610b9d6000f3fe608060405234801561001057600080fd5b50600436106100365760003560e01c8063d3c7c2c71461003b578063df791e501461005a575b600080fd5b610043610076565b6040516100519291906106cb565b60405180910390f35b610074600480360381019061006f919061075b565b6100c3565b005b6000807f00000000000000000000000000000000000000000000000000000000000000007f0000000000000000000000000000000000000000000000000000000000000000915091509091565b6100cb61031d565b7f000000000000000000000000000000000000000000000000000000000000000073ffffffffffffffffffffffffffffffffffffffff168373ffffffffffffffffffffffffffffffffffffffff16148061017057507f000000000000000000000000000000000000000000000000000000000000000073ffffffffffffffffffffffffffffffffffffffff168373ffffffffffffffffffffffffffffffffffffffff16145b61017957600080fd5b7f000000000000000000000000000000000000000000000000000000000000000073ffffffffffffffffffffffffffffffffffffffff168273ffffffffffffffffffffffffffffffffffffffff16148061021e57507f000000000000000000000000000000000000000000000000000000000000000073ffffffffffffffffffffffffffffffffffffffff168273ffffffffffffffffffffffffffffffffffffffff16145b61022757600080fd5b6102543330838673ffffffffffffffffffffffffffffffffffffffff16610363909392919063ffffffff16565b8173ffffffffffffffffffffffffffffffffffffffff1663a9059cbb33836040518363ffffffff1660e01b815260040161028f9291906107bd565b6020604051808303816000875af11580156102ae573d6000803e3d6000fd5b505050506040513d601f19601f820116820180604052508101906102d2919061081e565b507fb3822e221d737fbfd984649052a302a883d38a40f7ae591e3bcb5069eedc2a5983838333604051610308949392919061084b565b60405180910390a16103186103ec565b505050565b600260005403610359576040517f3ee5aeb500000000000000000000000000000000000000000000000000000000815260040160405180910390fd5b6002600081905550565b6103e6846323b872dd60e01b85858560405160240161038493929190610890565b604051602081830303815290604052907bffffffffffffffffffffffffffffffffffffffffffffffffffffffff19166020820180517bffffffffffffffffffffffffffffffffffffffffffffffffffffffff83818316178352505050506103f6565b50505050565b6001600081905550565b6000610458826040518060400160405280602081526020017f5361666545524332303a206c6f772d6c6576656c2063616c6c206661696c65648152508573ffffffffffffffffffffffffffffffffffffffff166104bd9092919063ffffffff16565b90506000815111156104b85780806020019051810190610478919061081e565b6104b7576040517f08c379a00000000000000000000000000000000000000000000000000000000081526004016104ae9061094a565b60405180910390fd5b5b505050565b60606104cc84846000856104d5565b90509392505050565b60608247101561051a576040517f08c379a0000000000000000000000000000000000000000000000000000000008152600401610511906109dc565b60405180910390fd5b6000808673ffffffffffffffffffffffffffffffffffffffff1685876040516105439190610a6d565b60006040518083038185875af1925050503d8060008114610580576040519150601f19603f3d011682016040523d82523d6000602084013e610585565b606091505b5091509150610596878383876105a2565b92505050949350505050565b606083156106045760008351036105fc576105bc85610617565b6105fb576040517f08c379a00000000000000000000000000000000000000000000000000000000081526004016105f290610ad0565b60405180910390fd5b5b82905061060f565b61060e838361063a565b5b949350505050565b6000808273ffffffffffffffffffffffffffffffffffffffff163b119050919050565b60008251111561064d5781518083602001fd5b806040517f08c379a00000000000000000000000000000000000000000000000000000000081526004016106819190610b45565b60405180910390fd5b600073ffffffffffffffffffffffffffffffffffffffff82169050919050565b60006106b58261068a565b9050919050565b6106c5816106aa565b82525050565b60006040820190506106e060008301856106bc565b6106ed60208301846106bc565b9392505050565b600080fd5b610702816106aa565b811461070d57600080fd5b50565b60008135905061071f816106f9565b92915050565b6000819050919050565b61073881610725565b811461074357600080fd5b50565b6000813590506107558161072f565b92915050565b600080600060608486031215610774576107736106f4565b5b600061078286828701610710565b935050602061079386828701610710565b92505060406107a486828701610746565b9150509250925092565b6107b781610725565b82525050565b60006040820190506107d260008301856106bc565b6107df60208301846107ae565b9392505050565b60008115159050919050565b6107fb816107e6565b811461080657600080fd5b50565b600081519050610818816107f2565b92915050565b600060208284031215610834576108336106f4565b5b600061084284828501610809565b91505092915050565b600060808201905061086060008301876106bc565b61086d60208301866106bc565b61087a60408301856107ae565b61088760608301846106bc565b95945050505050565b60006060820190506108a560008301866106bc565b6108b260208301856106bc565b6108bf60408301846107ae565b949350505050565b600082825260208201905092915050565b7f5361666545524332303a204552433230206f7065726174696f6e20646964206e60008201527f6f74207375636365656400000000000000000000000000000000000000000000602082015250565b6000610934602a836108c7565b915061093f826108d8565b604082019050919050565b6000602082019050818103600083015261096381610927565b9050919050565b7f416464726573733a20696e73756666696369656e742062616c616e636520666f60008201527f722063616c6c0000000000000000000000000000000000000000000000000000602082015250565b60006109c66026836108c7565b91506109d18261096a565b604082019050919050565b600060208201905081810360008301526109f5816109b9565b9050919050565b600081519050919050565b600081905092915050565b60005b83811015610a30578082015181840152602081019050610a15565b60008484015250505050565b6000610a47826109fc565b610a518185610a07565b9350610a61818560208601610a12565b80840191505092915050565b6000610a798284610a3c565b915081905092915050565b7f416464726573733a2063616c6c20746f206e6f6e2d636f6e7472616374000000600082015250565b6000610aba601d836108c7565b9150610ac582610a84565b602082019050919050565b60006020820190508181036000830152610ae981610aad565b9050919050565b600081519050919050565b6000601f19601f8301169050919050565b6000610b1782610af0565b610b2181856108c7565b9350610b31818560208601610a12565b610b3a81610afb565b840191505092915050565b60006020820190508181036000830152610b5f8184610b0c565b90509291505056fea264697066735822122090e852827390a3c2287efa842c2dde4b83362d5c95a332a2b6a6ba4b3dd6d3d364736f6c63430008140033",
  "linkReferences": {},
  "deployedLinkReferences": {}
}